:100000000C942A000C9447000C9447000C94470071
:100010000C9447000C9447000C9447000C94470044
:100020000C9447000C9447000C9447000C94470034
:100030000C9447000C9447000C9447000C94470024
:100040000C9447000C9447000C9447000C94470014
:100050000C94470011241FBECFE5D8E0DEBFCDBF12
:1000600010E0A8E6B0E001C01D92A936B107E1F7A3
:1000700010E0A0E6B0E0EEE1F2E202C005900D92E1
:10008000A836B107D9F70E9488100C940D110C9472
:100090000000EF92FF920F931F937B018C0120E0F1
:1000A00030E040E05FE40E94490388238CF0C801FF
:1000B000B70120E030E040E05FE40E94C1010E940F
:1000C000A9039B01AC01205030404040504806C07D
:1000D000C801B7010E94A9039B01AC01B901CA0183
:1000E0001F910F91FF90EF900895A0E0B0E0EBE733
:1000F000F0E00C94D610DC012B01FA019C919230B7
:1001000008F439C1EB018881823008F433C194309E
:1001100069F4843009F02FC111969C91119789815F
:10012000981709F428C1A0E6B0E025C1843009F48D
:1001300021C18230A9F4923009F01DC19A01AD01AC
:1001400088E0EA010990AE01E90109929E0181501F
:10015000C1F7E201898111969C918923818308C1AD
:10016000923009F407C112962D903C901397EB0141
:100170008A819B811496AD90BD90CD90DC901797AD
:10018000EC80FD800E811F819101281B390BB90184
:1001900037FF04C066277727621B730B6032710537
:1001A0000CF061C0121613066CF537014801062EDB
:1001B00004C096948794779467940A94D2F721E0C8
:1001C00030E040E050E004C0220F331F441F551FB1
:1001D0006A95D2F721503040404050402E213F21B7
:1001E00040235123211531054105510521F021E01E
:1001F00030E040E050E079018A01E628F72808293C
:1002000019293CC0232BD1F1260E371E350146019A
:10021000062E04C096948794779467940A94D2F734
:1002200021E030E040E050E004C0220F331F441FC3
:10023000551F6A95D2F721503040404050402A2146
:100240003B214C215D21211531054105510521F04E
:1002500021E030E040E050E059016A01A628B728CB
:10026000C828D9280BC0821593052CF01C01AA249C
:10027000BB24650103C0EE24FF24870111969C91E5
:10028000D20111968C91981709F445C0992339F041
:10029000A80197012A193B094C095D0906C0A6016E
:1002A00095012E193F09400B510B57FD08C01182D3
:1002B0003382228224833583468357831DC081E0A5
:1002C00081833382228288279927DC01821B930B4A
:1002D000A40BB50B84839583A683B7830DC0220F2F
:1002E000331F441F551F24833583468357838281E0
:1002F000938101979383828324813581468157813D
:10030000DA01C9010197A109B1098F5F9F4FAF4F72
:10031000BF4328F30BC0918333822282EA0CFB1C7B
:100320000C1D1D1DE482F5820683178383E0808304
:10033000248135814681578157FF1AC0C901AA27F8
:1003400097FDA095BA2F81709070A070B0705695EF
:10035000479537952795822B932BA42BB52B848318
:100360009583A683B7838281938101969383828349
:10037000DF0101C0D201CD01CDB7DEB7E2E10C94BF
:10038000F210A0E2B0E0E7ECF1E00C94E210698337
:100390007A838B839C832D833E834F835887E9E048
:1003A000EE2EF12CEC0EFD1ECE010196B7010E943F
:1003B000D2048E010F5E1F4FCE010596B8010E9438
:1003C000D2048A8991E089278A8BC701B801AE01DE
:1003D000475E5F4F0E9475000E94FD03A096E6E015
:1003E0000C94FE10A0E2B0E0E8EFF1E00C94E21013
:1003F00069837A838B839C832D833E834F835887C5
:10040000F9E0EF2EF12CEC0EFD1ECE010196B701A6
:100410000E94D2048E010F5E1F4FCE010596B801D7
:100420000E94D204C701B801AE01475E5F4F0E942F
:1004300075000E94FD03A096E6E00C94FE10A0E279
:10044000B0E0E5E2F2E00C94D61069837A838B8306
:100450009C832D833E834F835887CE010196BE0136
:10046000675F7F4F0E94D204CE010596BE016F5E8A
:100470007F4F0E94D2049985923088F0898982301A
:10048000C8F0943019F4823051F404C0843029F457
:10049000923081F480E690E0C6C0923049F420E0CA
:1004A0009A858A89981321E02A87CE010996BBC0D4
:1004B000823049F420E09A858A89981321E02A8BBA
:1004C000CE014196B0C02D843E844F8458886D88FB
:1004D0007E888F88988CEE24FF248701AA24BB2471
:1004E000650140E050E060E070E0E0E0F0E0C10174
:1004F00081709070892BE9F0E60CF71C081D191D1E
:100500009A01AB012A0D3B1D4C1D5D1D80E090E062
:10051000A0E0B0E0E614F7040805190520F481E036
:1005200090E0A0E0B0E0BA01A901480F591F6A1F8E
:100530007B1FAA0CBB1CCC1CDD1C97FE08C081E0F5
:1005400090E0A0E0B0E0A82AB92ACA2ADB2A3196B6
:10055000E032F10549F0660C771C881C991C569412
:10056000479437942794C3CFFA85EA892B893C892D
:100570008B859C85280F391F2E5F3F4F17C0CA01FE
:1005800081709070892B61F016950795F794E79428
:1005900080E090E0A0E0B0E8E82AF92A0A2B1B2BC3
:1005A00076956795579547952F5F3F4F77FDE7CF36
:1005B0000CC0440F551F661F771F17FD4160EE0CDE
:1005C000FF1C001F111F21503040403090E05907A0
:1005D00090E0690790E4790760F32B8F3C8FDB0193
:1005E000CA018F779070A070B07080349105A1051A
:1005F000B10561F447FD0AC0E114F10401051105DC
:1006000029F0405C5F4F6F4F7F4F40781A8EFE1786
:1006100011F081E08A8F4D8F5E8F6F8F78A383E01A
:10062000898FCE0149960E94FD03A096E2E10C94C9
:10063000F210A8E1B0E0EFE1F3E00C94E21069837E
:100640007A838B839C832D833E834F83588789E0F5
:10065000E82EF12CEC0EFD1ECE010196B7010E9492
:10066000D2048E010F5E1F4FCE010596B8010E9485
:10067000D2048985823040F08989823028F0C70110
:10068000B8010E944A0501C08FEF6896E6E00C941D
:10069000FE10A8E1B0E0EFE4F3E00C94E21069830F
:1006A0007A838B839C832D833E834F83588789E095
:1006B000E82EF12CEC0EFD1ECE010196B7010E9432
:1006C000D2048E010F5E1F4FCE010596B8010E9425
:1006D000D2048985823040F08989823028F0C701B0
:1006E000B8010E944A0501C08FEF6896E6E00C94BD
:1006F000FE10A8E1B0E0EFE7F3E00C94E2106983AC
:100700007A838B839C832D833E834F83588789E034
:10071000E82EF12CEC0EFD1ECE010196B7010E94D1
:10072000D2048E010F5E1F4FCE010596B8010E94C4
:10073000D2048985823040F08989823028F0C7014F
:10074000B8010E944A0501C081E06896E6E00C9479
:10075000FE10ACE0B0E0EFEAF3E00C94E610698341
:100760007A838B839C83CE010196BE016B5F7F4FA2
:100770000E94D2048D81823061F1823050F1843048
:1007800021F48E81882351F12EC02F81388537FDC9
:1007900020C06E812F3131051CF06623F9F023C093
:1007A0008EE190E0821B930B29853A854B855C8511
:1007B00004C056954795379527958A95D2F76623B5
:1007C000B1F050954095309521953F4F4F4F5F4F79
:1007D0000EC020E030E040E050E009C02FEF3FEFD6
:1007E0004FEF5FE704C020E030E040E050E8B9019F
:1007F000CA012C96E2E00C940211DF92EF92FF9274
:100800000F931F93FC01E480F58006811781D1804E
:100810008081823048F480E090E0A0E1B0E0E82AF6
:10082000F92A0A2B1B2BA5C0843009F49FC0823003
:1008300021F4EE24FF24870105C0E114F104010531
:10084000110519F4E0E0F0E096C0628173819FEF3A
:10085000623879070CF05BC022E83FEF261B370BAC
:100860002A3131052CF020E030E040E050E02AC091
:10087000B801A701022E04C0769567955795479554
:100880000A94D2F781E090E0A0E0B0E004C0880FC5
:10089000991FAA1FBB1F2A95D2F70197A109B10979
:1008A0008E219F21A023B1230097A105B10521F03E
:1008B00081E090E0A0E0B0E09A01AB01282B392B59
:1008C0004A2B5B2BDA01C9018F779070A070B07052
:1008D00080349105A105B10539F427FF09C0205CDA
:1008E0003F4F4F4F5F4F04C0215C3F4F4F4F5F4F13
:1008F000E0E0F0E02030A0E03A07A0E04A07A0E402
:100900005A0710F0E1E0F0E079018A0127C0603871
:10091000710564F5FB01E158FF4FD801C7018F77DE
:100920009070A070B07080349105A105B10539F4C4
:10093000E7FE0DC080E490E0A0E0B0E004C08FE3EB
:1009400090E0A0E0B0E0E80EF91E0A1F1B1F17FFA1
:1009500005C016950795F794E794319687E01695AC
:100960000795F794E7948A95D1F705C0EE24FF2404
:100970008701EFEFF0E06E2F679566276795902F60
:100980009F77D794DD24D7948E2F8695492F462BB9
:10099000582F5D29B701CA011F910F91FF90EF9069
:1009A000DF900895FC01DB01408151812281622F9B
:1009B0006F7770E0221F2227221F9381892F880FD3
:1009C000822B282F30E0991F9927991F11969C930D
:1009D000119721153105A9F54115510561057105DD
:1009E00011F482E037C082E89FEF13969C938E93B8
:1009F00012979A01AB0167E0220F331F441F551F66
:100A00006A95D1F783E08C930DC0220F331F441FEA
:100A1000551F12968D919C911397019713969C9355
:100A20008E931297203080E0380780E0480780E4FA
:100A3000580758F314962D933D934D935C93179755
:100A400008952F3F310579F4411551056105710570
:100A500019F484E08C93089564FF03C081E08C93C3
:100A600012C01C9210C02F57304013963C932E9307
:100A7000129783E08C9387E0440F551F661F771F02
:100A80008A95D1F7706414964D935D936D937C9322
:100A9000179708951F93DC01FB019C91923008F495
:100AA00047C08081823008F443C0943051F41196DD
:100AB0001C91843099F58181682F70E0611B710968
:100AC0003FC0843021F0923031F48230B9F181811D
:100AD000882389F12DC011961C9111978230F1F075
:100AE00081811817D9F412962D913C911397828128
:100AF00093818217930794F028173907BCF0149656
:100B00008D919D910D90BC91A02D248135814681C0
:100B10005781281739074A075B0718F4112341F05A
:100B20000AC082179307A407B50740F4112319F0F0
:100B300061E070E005C06FEF7FEF02C060E070E041
:100B4000CB011F910895DF93CF93CDB7DEB781E03E
:100B500066E041E00E94050781E065E040E00E9418
:100B6000050781E067E040E00E94050781E064E05E
:100B700040E00E940507ADE2B0E0EDE2F0E08081E8
:100B80008F7E8C93ADE2B0E0EDE2F0E08081806298
:100B90008C93ADE2B0E0EDE2F0E08081877F8C9352
:100BA000ADE2B0E0EDE2F0E0808181608C93ADE2F7
:100BB000B0E0EDE2F0E080818D7F8C93AEE2B0E0BA
:100BC000EEE2F0E080818E7F8C93ADE2B0E0EDE26A
:100BD000F0E0808180648C93CF91DF9108950F9332
:100BE0001F93DF93CF9300D0CDB7DEB78A831982EE
:100BF0000FE210E08A810E949A06F8018083EEE2FB
:100C0000F0E080818823DCF781E0898389810F907F
:100C10000F90CF91DF911F910F910895DF93CF93A4
:100C200000D000D0CDB7DEB79B838A8319828A813A
:100C30009B81009719F489818C8313C0EA81FB8121
:100C400080810E94EF058A819B8101969B838A8324
:100C5000EA81FB818081882389F781E0898389810A
:100C60008C838C810F900F900F900F90CF91DF911C
:100C70000895DF93CF9300D00F92CDB7DEB79B835B
:100C80008A831982EEE2F0E080818823DCF7EFE2CC
:100C9000F0E08081EA81FB818083EFE2F0E08081F7
:100CA0000E949A06EA81FB81808381E089838981A1
:100CB0000F900F900F90CF91DF910895DF93CF9316
:100CC000CDB7DEB727970FB6F894DEBF0FBECDBF06
:100CD0009D838C831B828C819D81009719F48B816D
:100CE0008E831EC08C819D819A83898389819A819C
:100CF0000E943906E981FA8180818F838F81882360
:100D000011F081E08F838F8129813A812F5F3F4FDE
:100D10003A832983882351F781E08B838B818E83EB
:100D20008E8127960FB6F894DEBF0FBECDBFCF9150
:100D3000DF910895DF93CF930F92CDB7DEB789830C
:100D4000898182958F70282F8981882F90E08295E4
:100D50009295907F9827807F9827822B898389811D
:100D6000882F90E08C7C90709595879595958795C8
:100D7000282F8981882F90E083739070880F991FA6
:100D8000880F991F822B89838981882F90E08A7A26
:100D9000907095958795282F8981882F90E085758B
:100DA0009070880F991F822B898389810F90CF9132
:100DB000DF910895DF93CF930F92CDB7DEB71982FD
:100DC000EAE3F0E080EF8083EBE3F0E083EC808304
:100DD000E7E3F0E080EF8083E8E3F0E083EC8083FA
:100DE000E4E3F0E080EF8083E5E3F0E083EC8083F0
:100DF000E1E3F0E080EF8083E2E3F0E083EC8083E6
:100E000089810F90CF91DF910895DF93CF93CDB774
:100E1000DEB727970FB6F894DEBF0FBECDBF8A832B
:100E20006B834C8319828A81843008F0DEC08B8109
:100E3000883008F0DAC08C81823008F0D6C08A8110
:100E4000282F30E03F832E838E819F818130910552
:100E500009F443C02E813F81223031052CF48E816C
:100E60009F81009771F0BCC02E813F8122303105F7
:100E700009F45FC08E819F818330910509F485C09C
:100E8000AFC08C818130A1F4AAE3B0E0EAE3F0E0E6
:100E90008081482F8B81282F30E081E090E0022E66
:100EA00002C0880F991F0A94E2F7842B8C9398C094
:100EB000AAE3B0E0EAE3F0E08081482F8B81282F9D
:100EC00030E081E090E0022E02C0880F991F0A9462
:100ED000E2F7809584238C9383C08C818130A1F4C8
:100EE000A7E3B0E0E7E3F0E08081482F8B81282F73
:100EF00030E081E090E0022E02C0880F991F0A9432
:100F0000E2F7842B8C936CC0A7E3B0E0E7E3F0E05A
:100F10008081482F8B81282F30E081E090E0022EE5
:100F200002C0880F991F0A94E2F7809584238C935E
:100F300057C08C818130A1F4A4E3B0E0E4E3F0E099
:100F40008081482F8B81282F30E081E090E0022EB5
:100F500002C0880F991F0A94E2F7842B8C9340C03B
:100F6000A4E3B0E0E4E3F0E08081482F8B81282FF8
:100F700030E081E090E0022E02C0880F991F0A94B1
:100F8000E2F7809584238C932BC08C818130A1F46F
:100F9000A1E3B0E0E1E3F0E08081482F8B81282FCE
:100FA00030E081E090E0022E02C0880F991F0A9481
:100FB000E2F7842B8C9314C0A1E3B0E0E1E3F0E00E
:100FC0008081482F8B81282F30E081E090E0022E35
:100FD00002C0880F991F0A94E2F7809584238C93AE
:100FE00081E0898399819D8302C029812D838D8130
:100FF00027960FB6F894DEBF0FBECDBFCF91DF911D
:101000000895DF93CF93CDB7DEB727970FB6F89447
:10101000DEBF0FBECDBF8A836B834C8319828A816A
:10102000843008F0DEC08B81883008F0DAC08C8113
:10103000823008F0D6C08A81282F30E03F832E838B
:101040008E819F818130910509F443C02E813F81BB
:10105000223031052CF48E819F81009771F0BCC045
:101060002E813F812230310509F45FC08E819F813E
:101070008330910509F485C0AFC08C818823A1F02D
:10108000ABE3B0E0EBE3F0E08081482F8B81282FC9
:1010900030E081E090E0022E02C0880F991F0A9490
:1010A000E2F7842B8C9398C0ABE3B0E0EBE3F0E085
:1010B0008081482F8B81282F30E081E090E0022E44
:1010C00002C0880F991F0A94E2F7809584238C93BD
:1010D00083C08C818823A1F0A8E3B0E0E8E3F0E0CE
:1010E0008081482F8B81282F30E081E090E0022E14
:1010F00002C0880F991F0A94E2F7842B8C936CC06E
:10110000A8E3B0E0E8E3F0E08081482F8B81282F4E
:1011100030E081E090E0022E02C0880F991F0A940F
:10112000E2F7809584238C9357C08C818823A1F0AB
:10113000A5E3B0E0E5E3F0E08081482F8B81282F24
:1011400030E081E090E0022E02C0880F991F0A94DF
:10115000E2F7842B8C9340C0A5E3B0E0E5E3F0E038
:101160008081482F8B81282F30E081E090E0022E93
:1011700002C0880F991F0A94E2F7809584238C930C
:101180002BC08C818823A1F0A2E3B0E0E2E3F0E081
:101190008081482F8B81282F30E081E090E0022E63
:1011A00002C0880F991F0A94E2F7842B8C9314C015
:1011B000A2E3B0E0E2E3F0E08081482F8B81282FAA
:1011C00030E081E090E0022E02C0880F991F0A945F
:1011D000E2F7809584238C9381E0898399819D83B4
:1011E00002C029812D838D8127960FB6F894DEBF2A
:1011F0000FBECDBFCF91DF910895DF93CF93CDB7D1
:10120000DEB728970FB6F894DEBF0FBECDBF8A8336
:101210006B835D834C8319828C819D81009729F4B7
:1012200083E08983298128877FC08A81843008F000
:1012300079C08B81883008F075C08A81482F50E0D2
:101240005F834E838E819F818130910559F12E817C
:101250003F812230310534F44E815F8141155105C3
:1012600069F05BC08E819F818230910579F12E817A
:101270003F812330310509F43DC04FC0E9E3F0E080
:101280008081282F30E08B81882F90E0A90102C057
:10129000559547958A95E2F7CA018170EC81FD81E9
:1012A00080833BC0E6E3F0E08081282F30E08B8133
:1012B000882F90E0A90102C0559547958A95E2F7DD
:1012C000CA018170EC81FD81808327C0E3E3F0E0F7
:1012D0008081282F30E08B81882F90E0A90102C007
:1012E000559547958A95E2F7CA018170EC81FD8199
:1012F000808313C0E0E3F0E08081282F30E08B8111
:10130000882F90E0A90102C0559547958A95E2F78C
:10131000CA018170EC81FD81808381E089835981DC
:10132000588702C089818887888528960FB6F894E7
:10133000DEBF0FBECDBFCF91DF910895DF93CF9376
:1013400000D000D000D0CDB7DEB78A836B8319827E
:101350008A81843008F077C08B81883008F073C0B0
:101360008A81282F30E03E832D838D819E818130BC
:10137000910549F12D813E81223031052CF48D817A
:101380009E81009761F05AC02D813E812230310547
:1013900071F18D819E8183309105E9F14FC0ABE3FE
:1013A000B0E0EBE3F0E08081482F8B81282F30E024
:1013B00081E090E0022E02C0880F991F0A94E2F7A4
:1013C00084278C933BC0A8E3B0E0E8E3F0E08081A1
:1013D000482F8B81282F30E081E090E0022E02C060
:1013E000880F991F0A94E2F784278C9327C0A5E3FE
:1013F000B0E0E5E3F0E08081482F8B81282F30E0DA
:1014000081E090E0022E02C0880F991F0A94E2F753
:1014100084278C9313C0A2E3B0E0E2E3F0E0808184
:10142000482F8B81282F30E081E090E0022E02C00F
:10143000880F991F0A94E2F784278C9381E08983AF
:1014400099819C8302C029812C838C8126960FB6BA
:10145000F894DEBF0FBECDBFCF91DF910895DF932B
:10146000CF9300D000D000D0CDB7DEB78A836B8396
:1014700019828A81843008F057C08B81823008F04D
:1014800053C08A81282F30E03E832D838D819E8139
:101490008130910509F12D813E81223031052CF4F6
:1014A0008D819E81009761F03AC02D813E8122306E
:1014B0003105F1F08D819E818330910529F12FC096
:1014C0008B81813029F4EAE3F0E08FEF808327C03D
:1014D000EAE3F0E0108223C08B81813029F4E7E356
:1014E000F0E08FEF80831BC0E7E3F0E0108217C0CD
:1014F0008B81813029F4E4E3F0E08FEF80830FC02B
:10150000E4E3F0E010820BC08B81813029F4E1E349
:10151000F0E08FEF808303C0E1E3F0E0108281E030
:10152000898399819C8302C029812C838C81269692
:101530000FB6F894DEBF0FBECDBFCF91DF910895F7
:10154000DF93CF9300D000D000D0CDB7DEB78A8331
:101550006B8319828A81843008F057C08B81823076
:1015600008F053C08A81282F30E03E832D838D817F
:101570009E818130910509F12D813E812230310516
:101580002CF48D819E81009761F03AC02D813E81BF
:1015900022303105F1F08D819E818330910529F152
:1015A0002FC08B81882329F0EBE3F0E08FEF80835D
:1015B00027C0EBE3F0E0108223C08B81882329F061
:1015C000E8E3F0E08FEF80831BC0E8E3F0E01082F7
:1015D00017C08B81882329F0E5E3F0E08FEF80834B
:1015E0000FC0E5E3F0E010820BC08B81882329F067
:1015F000E2E3F0E08FEF808303C0E2E3F0E01082EB
:1016000081E0898399819C8302C029812C838C810C
:1016100026960FB6F894DEBF0FBECDBFCF91DF91F7
:101620000895DF93CF93CDB7DEB7E9970FB6F8945F
:10163000DEBF0FBECDBF19AE80E067E041E00E9483
:10164000050780E065E041E00E94050780E066E074
:1016500041E00E94050782E067E041E00E94050743
:1016600082E066E041E00E94050782E065E041E03B
:101670000E94050782E064E041E00E94050780E0E7
:1016800090E0ACE0B2E48DAB9EABAFABB8AF6DA970
:101690007EA98FA998AD20E030E04AEF54E40E9483
:1016A0001F02DC01CB0189AB9AABABABBCAB69A928
:1016B0007AA98BA99CA920E030E040E85FE30E9472
:1016C000790388232CF481E090E098AB8FA73FC08A
:1016D00069A97AA98BA99CA920E03FEF4FE757E4BD
:1016E0000E94190318164CF56DA97EA98FA998AD13
:1016F00020E030E040E251E40E941F02DC01CB0117
:10170000BC01CD010E944900DC01CB0198AB8FA741
:101710000FC088EC90E09EA78DA78DA59EA5019790
:10172000F1F79EA78DA78FA598A9019798AB8FA7D2
:101730008FA598A9009769F714C069A97AA98BA900
:101740009CA90E944900DC01CB0198AB8FA78FA513
:1017500098A99CA78BA78BA59CA50197F1F79CA79F
:101760008BA780E20E94B10E80E20E94B10E80E859
:101770000E94B10E80E090E0A0E8BFE38FA398A79D
:10178000A9A7BAA76FA178A589A59AA520E030E0FE
:101790004AEF54E40E941F02DC01CB018BA39CA3FF
:1017A000ADA3BEA36BA17CA18DA19EA120E030E0E2
:1017B00040E85FE30E94790388232CF481E090E005
:1017C0009AA389A33FC06BA17CA18DA19EA120E01B
:1017D0003FEF4FE757E40E94190318164CF56FA12D
:1017E00078A589A59AA520E030E040E251E40E9466
:1017F0001F02DC01CB01BC01CD010E944900DC01CC
:10180000CB019AA389A30FC088EC90E098A38F8F97
:101810008F8D98A10197F1F798A38F8F89A19AA135
:1018200001979AA389A389A19AA1009769F714C087
:101830006BA17CA18DA19EA10E944900DC01CB017E
:101840009AA389A389A19AA19E8F8D8F8D8D9E8D3C
:101850000197F1F79E8F8D8F80E00E94B10E80EF8F
:101860000E94B10E80E090E0A0E8BFE3898F9A8FDC
:10187000AB8FBC8F698D7A8D8B8D9C8D20E030E095
:101880004AEF54E40E941F02DC01CB018D8B9E8B3A
:10189000AF8BB88F6D897E898F89988D20E030E07D
:1018A00040E85FE30E94790388232CF481E090E014
:1018B0009C8B8B8B3FC06D897E898F89988D20E0B2
:1018C0003FEF4FE757E40E94190318164CF5698D56
:1018D0007A8D8B8D9C8D20E030E040E251E40E94B7
:1018E0001F02DC01CB01BC01CD010E944900DC01DB
:1018F000CB019C8B8B8B0FC088EC90E09A8B898BF3
:1019000089899A890197F1F79A8B898B8B899C89B0
:1019100001979C8B8B8B8B899C89009769F714C0EE
:101920006D897E898F89988D0E944900DC01CB01E9
:101930009C8B8B8B8B899C89988B8F878F859889C3
:101940000197F1F7988B8F8780E00E94B10E81E0BC
:101950000E94B10E80E090E0A0E0B0E48B879C870D
:10196000AD87BE876B857C858D859E8520E030E0C8
:101970004AEF54E40E941F02DC01CB018F83988759
:10198000A987BA876F81788589859A8520E030E0BC
:1019900040E85FE30E94790388232CF481E090E023
:1019A0009E838D833FC06F81788589859A8520E0ED
:1019B0003FEF4FE757E40E94190318164CF56B856B
:1019C0007C858D859E8520E030E040E251E40E94D8
:1019D0001F02DC01CB01BC01CD010E944900DC01EA
:1019E000CB019E838D830FC088EC90E09C838B831A
:1019F0008B819C810197F1F79C838B838D819E81E4
:101A000001979E838D838D819E81009769F714C015
:101A10006F81788589859A850E944900DC01CB0118
:101A20009E838D838D819E819A83898389819A810A
:101A30000197F1F79A83898380E00E94B10E86E0D6
:101A40000E94B10E81E08093680081E089AF89AD8A
:101A5000E9960FB6F894DEBF0FBECDBFCF91DF91F0
:101A60000895DF93CF93CDB7DEB76E970FB6F89496
:101A7000DEBF0FBECDBF8E8F1D8E8E8D82958F7077
:101A8000982F917082E064E0492F0E9401088E8DAA
:101A9000829586958770982F917082E065E0492F36
:101AA0000E9401088E8D8295869586958370982F69
:101AB000917082E066E0492F0E9401088E8D982F78
:101AC000991F9927991F82E067E0492F0E9401081A
:101AD00080E066E041E00E94010880E090E0A0E044
:101AE000B0E4898F9A8FAB8FBC8F698D7A8D8B8D87
:101AF0009C8D20E030E04AEF54E40E941F02DC019C
:101B0000CB018D8B9E8BAF8BB88F6D897E898F8932
:101B1000988D20E030E040E85FE30E94790388235D
:101B20002CF481E090E09C8B8B8B3FC06D897E898B
:101B30008F89988D20E03FEF4FE757E40E9419030B
:101B400018164CF5698D7A8D8B8D9C8D20E030E0D8
:101B500040E251E40E941F02DC01CB01BC01CD0137
:101B60000E944900DC01CB019C8B8B8B0FC088EC61
:101B700090E09A8B898B89899A890197F1F79A8BE2
:101B8000898B8B899C8901979C8B8B8B8B899C89FA
:101B9000009769F714C06D897E898F89988D0E949E
:101BA0004900DC01CB019C8B8B8B8B899C89988BAA
:101BB0008F878F8598890197F1F7988B8F8780E0C1
:101BC00066E040E00E94010880916800882309F4E3
:101BD000A2C08E8D982F917082E064E0492F0E9400
:101BE00001088E8D8695982F917082E065E0492FCF
:101BF0000E9401088E8D86958695982F917082E0BF
:101C000066E0492F0E9401088E8D869586958695FF
:101C1000982F917082E067E0492F0E94010880E0D0
:101C200066E041E00E94010880E090E0A0E0B0E4BE
:101C30008B879C87AD87BE876B857C858D859E85D0
:101C400020E030E04AEF54E40E941F02DC01CB01A7
:101C50008F839887A987BA876F81788589859A85C8
:101C600020E030E040E85FE30E94790388232CF411
:101C700081E090E09E838D833FC06F817885898568
:101C80009A8520E03FEF4FE757E40E9419031816AA
:101C90004CF56B857C858D859E8520E030E040E2AB
:101CA00051E40E941F02DC01CB01BC01CD010E9466
:101CB0004900DC01CB019E838D830FC088EC90E04E
:101CC0009C838B838B819C810197F1F79C838B8311
:101CD0008D819E8101979E838D838D819E8100974A
:101CE00069F714C06F81788589859A850E944900BB
:101CF000DC01CB019E838D838D819E819A838983B4
:101D000089819A810197F1F79A83898380E066E05F
:101D100040E00E94010881E08D8F8D8D6E960FB698
:101D2000F894DEBF0FBECDBFCF91DF910895DF9352
:101D3000CF9300D0CDB7DEB78A83198280E067E009
:101D400041E00E94010880E065E040E00E94010857
:101D50008A810E94310D89810F900F90CF91DF9180
:101D60000895DF93CF9300D0CDB7DEB78A83198271
:101D700080E067E040E00E94010880E065E040E02C
:101D80000E9401088A810E94310D81E08983898146
:101D90000F900F90CF91DF910895DF93CF9300D0F4
:101DA00000D00F92CDB7DEB79C838B831A828B81D4
:101DB0009C810097F9F019820FC08981282F30E0AB
:101DC0008B819C81FC01E20FF31F908189818F5FE1
:101DD0008983892F0E94970E8981282F30E08B817B
:101DE0009C81FC01E20FF31F8081882331F78A81F7
:101DF0008D8304C081E08A838A818D838D810F90D9
:101E00000F900F900F900F90CF91DF910895DF9377
:101E1000CF93CDB7DEB7A0970FB6F894DEBF0FBE55
:101E2000CDBF6B8F7C8F8D8F9E8F4F8F1E821D82BB
:101E30001C821B821A828B8D9C8DAD8DBE8DBB2327
:101E400094F48DE20E94970E8B8D9C8DAD8DBE8D8E
:101E5000B095A095909581959F4FAF4FBF4F8B8FB9
:101E60009C8FAD8FBE8F8B8D9C8DAD8DBE8D009761
:101E7000A105B10509F04BC08D81282F30E0CE01BE
:101E80000796FC01E20FF31F80E380838D818F5F53
:101E90008D838D81282F30E0CE010796FC01E20F63
:101EA000F31F10828E8188A37FC08F8D282F30E092
:101EB00040E050E08B8D9C8DAD8DBE8DBC01CD0181
:101EC0000E949910DC01CB018C838D81282F30E09A
:101ED0008C81482F405DCE010796FC01E20FF31F75
:101EE00040838D818F5F8D838F8D282F30E040E080
:101EF00050E08B8D9C8DAD8DBE8DBC01CD010E94BF
:101F00009910DA01C9018B8F9C8FAD8FBE8F8B8D9D
:101F10009C8DAD8DBE8D0097A105B10531F68D81EB
:101F2000282F30E0CE010796FC01E20FF31F10824C
:101F30008D8181508A832CC08B81282F30E0CE0187
:101F40000796FC01E20FF31F808189838B81482F64
:101F500050E08A81282F30E0CE010796FC01E20F85
:101F6000F31F2081CE010796FC01E40FF51F2083AB
:101F70008A81282F30E0CE010796FC01E20FF31F83
:101F8000898180838B818F5F8B838A8181508A8353
:101F90009B818A81981780F2CE0107960E94CD0E10
:101FA00081E08E838E8188A388A1A0960FB6F894D5
:101FB000DEBF0FBECDBFCF91DF910895DF93CF93EA
:101FC000CDB7DEB727970FB6F894DEBF0FBECDBFF3
:101FD0008B836C831A828B81813118F48C818330DE
:101FE00018F02A812F8323C019828C81282F30E09A
:101FF0003E832D838D819E818130910531F02D812D
:102000003E812230310521F007C08B81898305C0D4
:102010008B81805C898301C01A8289818068898371
:1020200089810E94B10E81E08A833A813F838F814A
:1020300027960FB6F894DEBF0FBECDBFCF91DF91CC
:102040000895DF93CF93CDB7DEB727970FB6F894F7
:10205000DEBF0FBECDBF9D838C836E831B828C81C0
:102060009D81009719F08E81893018F08B818F83C4
:102070002AC08E81882F90E0880F991F880F991FA2
:10208000880F991F8A838A8180648A838A810E944B
:10209000B10E19820EC08981282F30E08C819D817C
:1020A000FC01E20FF31F80810E94970E89818F5FF0
:1020B00089838981883078F382E00E94B10E81E0C3
:1020C0008B838B818F838F8127960FB6F894DEBF29
:1020D0000FBECDBFCF91DF910895DF93CF9300D096
:1020E00000D0CDB7DEB78A836B834C8319828C8195
:1020F0006B810E94DE0F8A810E94970E81E08983A6
:1021000089810F900F900F900F90CF91DF910895DC
:10211000DF93CF930F92CDB7DEB70E94A3050E9445
:10212000110BCE0101960E94390689810E94970EFB
:10213000FFCF97FB092E05260ED057FD04D014D0F3
:102140000AD0001C38F450954095309521953F4FAA
:102150004F4F5F4F0895F6F7909580957095619574
:102160007F4F8F4F9F4F0895A1E21A2EAA1BBB1BD2
:10217000FD010DC0AA1FBB1FEE1FFF1FA217B30753
:10218000E407F50720F0A21BB30BE40BF50B661F69
:10219000771F881F991F1A9469F76095709580952D
:1021A00090959B01AC01BD01CF0108952F923F9204
:1021B0004F925F926F927F928F929F92AF92BF9257
:1021C000CF92DF92EF92FF920F931F93CF93DF9303
:1021D000CDB7DEB7CA1BDB0B0FB6F894DEBF0FBE60
:1021E000CDBF09942A88398848885F846E847D84AD
:1021F0008C849B84AA84B984C884DF80EE80FD80AF
:102200000C811B81AA81B981CE0FD11D0FB6F89424
:0E221000DEBF0FBECDBFED010895F894FFCFE5
:08221E000000000000000000B8
:00000001FF
