:100000000C942A000C9448120C947B120C94AE129F
:100010000C94680D0C940B0D0C9447000C94AE0CD2
:100020000C9447000C94510C0C94F40B0C94970B0B
:100030000C9447000C9447000C9447000C94470024
:100040000C9447000C9447000C9447000C94470014
:100050000C94470011241FBECFE5D8E0DEBFCDBF12
:1000600011E0A0E6B0E0EEE2FEE302C005900D92E2
:10007000AA3CB107D9F711E0AAECB1E001C01D928A
:10008000AF3EB107E1F70E948F1C0C94151F0C9432
:100090000000EF92FF920F931F937B018C0120E0F1
:1000A00030E040E05FE40E94F50388238CF0C80153
:1000B000B70120E030E040E05FE40E94C1010E940F
:1000C00055049B01AC01205030404040504806C0D0
:1000D000C801B7010E9455049B01AC01B901CA01D6
:1000E0001F910F91FF90EF900895A0E0B0E0EBE733
:1000F000F0E00C94DE1EDC012B01FA019C919230A1
:1001000008F439C1EB018881823008F433C194309E
:1001100069F4843009F02FC111969C91119789815F
:10012000981709F428C1ABEBB0E025C1843009F47D
:1001300021C18230A9F4923009F01DC19A01AD01AC
:1001400088E0EA010990AE01E90109929E0181501F
:10015000C1F7E201898111969C918923818308C1AD
:10016000923009F407C112962D903C901397EB0141
:100170008A819B811496AD90BD90CD90DC901797AD
:10018000EC80FD800E811F819101281B390BB90184
:1001900037FF04C066277727621B730B6032710537
:1001A0000CF061C0121613066CF537014801062EDB
:1001B00004C096948794779467940A94D2F721E0C8
:1001C00030E040E050E004C0220F331F441F551FB1
:1001D0006A95D2F721503040404050402E213F21B7
:1001E00040235123211531054105510521F021E01E
:1001F00030E040E050E079018A01E628F72808293C
:1002000019293CC0232BD1F1260E371E350146019A
:10021000062E04C096948794779467940A94D2F734
:1002200021E030E040E050E004C0220F331F441FC3
:10023000551F6A95D2F721503040404050402A2146
:100240003B214C215D21211531054105510521F04E
:1002500021E030E040E050E059016A01A628B728CB
:10026000C828D9280BC0821593052CF01C01AA249C
:10027000BB24650103C0EE24FF24870111969C91E5
:10028000D20111968C91981709F445C0992339F041
:10029000A80197012A193B094C095D0906C0A6016E
:1002A00095012E193F09400B510B57FD08C01182D3
:1002B0003382228224833583468357831DC081E0A5
:1002C00081833382228288279927DC01821B930B4A
:1002D000A40BB50B84839583A683B7830DC0220F2F
:1002E000331F441F551F24833583468357838281E0
:1002F000938101979383828324813581468157813D
:10030000DA01C9010197A109B1098F5F9F4FAF4F72
:10031000BF4328F30BC0918333822282EA0CFB1C7B
:100320000C1D1D1DE482F5820683178383E0808304
:10033000248135814681578157FF1AC0C901AA27F8
:1003400097FDA095BA2F81709070A070B0705695EF
:10035000479537952795822B932BA42BB52B848318
:100360009583A683B7838281938101969383828349
:10037000DF0101C0D201CD01CDB7DEB7E2E10C94BF
:10038000FA1EA0E2B0E0E7ECF1E00C94EA1E69830B
:100390007A838B839C832D833E834F835887E9E048
:1003A000EE2EF12CEC0EFD1ECE010196B7010E943F
:1003B00046068E010F5E1F4FCE010596B8010E94C2
:1003C00046068A8991E089278A8BC701B801AE0168
:1003D000475E5F4F0E9475000E947105A096E6E09F
:1003E0000C94061FA0E2B0E0E8EFF1E00C94EA1EE6
:1003F00069837A838B839C832D833E834F835887C5
:10040000F9E0EF2EF12CEC0EFD1ECE010196B701A6
:100410000E9446068E010F5E1F4FCE010596B80161
:100420000E944606C701B801AE01475E5F4F0E94B9
:1004300075000E947105A096E6E00C94061FA0E2EC
:10044000B0E0E5E2F2E00C94DE1E69837A838B83F0
:100450009C832D833E834F835887CE010196BE0136
:10046000675F7F4F0E944606CE010596BE016F5E14
:100470007F4F0E9446069985923088F089898230A4
:10048000C8F0943019F4823051F404C0843029F457
:10049000923081F48BEB90E0C6C0923049F420E0BA
:1004A0009A858A89981321E02A87CE010996BBC0D4
:1004B000823049F420E09A858A89981321E02A8BBA
:1004C000CE014196B0C02D843E844F8458886D88FB
:1004D0007E888F88988CEE24FF248701AA24BB2471
:1004E000650140E050E060E070E0E0E0F0E0C10174
:1004F00081709070892BE9F0E60CF71C081D191D1E
:100500009A01AB012A0D3B1D4C1D5D1D80E090E062
:10051000A0E0B0E0E614F7040805190520F481E036
:1005200090E0A0E0B0E0BA01A901480F591F6A1F8E
:100530007B1FAA0CBB1CCC1CDD1C97FE08C081E0F5
:1005400090E0A0E0B0E0A82AB92ACA2ADB2A3196B6
:10055000E032F10549F0660C771C881C991C569412
:10056000479437942794C3CFFA85EA892B893C892D
:100570008B859C85280F391F2E5F3F4F17C0CA01FE
:1005800081709070892B61F016950795F794E79428
:1005900080E090E0A0E0B0E8E82AF92A0A2B1B2BC3
:1005A00076956795579547952F5F3F4F77FDE7CF36
:1005B0000CC0440F551F661F771F17FD4160EE0CDE
:1005C000FF1C001F111F21503040403090E05907A0
:1005D00090E0690790E4790760F32B8F3C8FDB0193
:1005E000CA018F779070A070B07080349105A1051A
:1005F000B10561F447FD0AC0E114F10401051105DC
:1006000029F0405C5F4F6F4F7F4F40781A8EFE1786
:1006100011F081E08A8F4D8F5E8F6F8F78A383E01A
:10062000898FCE0149960E947105A096E2E10C9453
:10063000FA1EA8E1B0E0EFE1F3E00C94E61E698356
:100640007A838B839C832D833E834F835887B9E0C5
:10065000EB2EF12CEC0EFD1ECE010196B7010E948F
:1006600046068E010F5E1F4FCE010596B8010E940F
:1006700046062985223008F47EC03989323010F4CC
:10068000B8017CC08A859A8989278A87243011F02D
:10069000223031F4231709F06EC06BEB70E06EC0AE
:1006A000343039F41D861E861F86188A1C861B86E8
:1006B00004C0323021F484E08987B7015FC02B8504
:1006C0003C858B899C89281B390B3C872B87ED84C3
:1006D000FE840F851889AD88BE88CF88D88CEA142F
:1006E000FB040C051D0540F4EE0CFF1C001F111F40
:1006F000215030403C872B8720E030E040E050E044
:1007000080E090E0A0E0B0E460E070E0EA14FB0478
:100710000C051D0540F0282B392B4A2B5B2BEA18C2
:10072000FB080C091D09B695A79597958795EE0CC2
:10073000FF1C001F111F6F5F7F4F6F31710531F775
:10074000DA01C9018F779070A070B0708034910584
:10075000A105B10561F427FD0AC0E114F10401050A
:10076000110529F0205C3F4F4F4F5F4F20782D87B8
:100770003E874F87588BBE01675F7F4FCB010E943A
:1007800071056896EAE00C94021FA8E1B0E0EBEC7A
:10079000F3E00C94EA1E69837A838B839C832D8318
:1007A0003E834F83588789E0E82EF12CEC0EFD1E26
:1007B000CE010196B7010E9446068E010F5E1F4FC3
:1007C000CE010596B8010E9446068985823040F028
:1007D0008989823028F0C701B8010E94BE0601C095
:1007E0008FEF6896E6E00C94061FA8E1B0E0EBEF0F
:1007F000F3E00C94EA1E69837A838B839C832D83B8
:100800003E834F83588789E0E82EF12CEC0EFD1EC5
:10081000CE010196B7010E9446068E010F5E1F4F62
:10082000CE010596B8010E9446068985823040F0C7
:100830008989823028F0C701B8010E94BE0601C034
:100840008FEF6896E6E00C94061FA8E1B0E0EBE2BB
:10085000F4E00C94EA1E69837A838B839C832D8356
:100860003E834F83588789E0E82EF12CEC0EFD1E65
:10087000CE010196B7010E9446068E010F5E1F4F02
:10088000CE010596B8010E9446068985823040F067
:100890008989823028F0C701B8010E94BE0601C0D4
:1008A00081E06896E6E00C94061FACE0B0E0EBE572
:1008B000F4E00C94EE1E69837A838B839C83CE01D3
:1008C0000196BE016B5F7F4F0E9446068D8182308C
:1008D00061F1823050F1843021F48E81882351F10E
:1008E0002EC02F81388537FD20C06E812F31310514
:1008F0001CF06623F9F023C08EE190E0821B930B7D
:1009000029853A854B855C8504C056954795379572
:1009100027958A95D2F76623B1F05095409530958A
:1009200021953F4F4F4F5F4F0EC020E030E040E039
:1009300050E009C02FEF3FEF4FEF5FE704C020E02A
:1009400030E040E050E8B901CA012C96E2E00C9496
:100950000A1FA8E0B0E0EFEAF4E00C94E61E7B0189
:100960008C01611571058105910519F482E0898377
:1009700060C083E089838EE1C82ED12CDC82CB82DB
:10098000ED82FE820F831887C801B7010E942205FD
:10099000FC013197F7FF3BC0222733272E1B3F0B6B
:1009A00057016801022E04C0D694C794B794A79447
:1009B0000A94D2F740E050E060E070E081E090E01F
:1009C000A0E0B0E004C0880F991FAA1FBB1F2A95A2
:1009D000D2F70197A109B1098E219F21A023B1234C
:1009E0000097A105B10521F041E050E060E070E022
:1009F0004A295B296C297D294D835E836F83788723
:100A00008EE190E08E1B9F0B9C838B8312C03097EE
:100A100081F00E2E04C0EE0CFF1C001F111F0A9463
:100A2000D2F7ED82FE820F831887CE1ADF0ADC82AE
:100A3000CB821A82CE0101960E9471052896EAE0C7
:100A40000C94021FEF92FF920F931F937B018C0176
:100A500080E0E81680E0F80681E0080780E01807EB
:100A600088F48FEFE816F1040105110531F028F044
:100A700088E090E0A0E0B0E017C080E090E0A0E067
:100A8000B0E012C080E0E81680E0F80680E00807D9
:100A900081E0180728F088E190E0A0E0B0E004C011
:100AA00080E190E0A0E0B0E020E230E040E050E003
:100AB000281B390B4A0B5B0B04C016950795F7945E
:100AC000E7948A95D2F7F701ED53FF4F8081281BF9
:100AD000310941095109C9011F910F91FF90EF9010
:100AE0000895DF92EF92FF920F931F93FC01E48031
:100AF000F58006811781D1808081823048F480E0C2
:100B000090E0A0E1B0E0E82AF92A0A2B1B2BA5C04F
:100B1000843009F49FC0823021F4EE24FF24870141
:100B200005C0E114F1040105110519F4E0E0F0E05D
:100B300096C0628173819FEF623879070CF05BC0C9
:100B400022E83FEF261B370B2A3131052CF020E03D
:100B500030E040E050E02AC0B801A701022E04C0F6
:100B600076956795579547950A94D2F781E090E07E
:100B7000A0E0B0E004C0880F991FAA1FBB1F2A95F0
:100B8000D2F70197A109B1098E219F21A023B1239A
:100B90000097A105B10521F081E090E0A0E0B0E070
:100BA0009A01AB01282B392B4A2B5B2BDA01C901A7
:100BB0008F779070A070B07080349105A105B10559
:100BC00039F427FF09C0205C3F4F4F4F5F4F04C0EF
:100BD000215C3F4F4F4F5F4FE0E0F0E02030A0E05E
:100BE0003A07A0E04A07A0E45A0710F0E1E0F0E07D
:100BF00079018A0127C06038710564F5FB01E1586D
:100C0000FF4FD801C7018F779070A070B07080340B
:100C10009105A105B10539F4E7FE0DC080E490E02F
:100C2000A0E0B0E004C08FE390E0A0E0B0E0E80E08
:100C3000F91E0A1F1B1F17FF05C016950795F7948D
:100C4000E794319687E016950795F794E7948A958F
:100C5000D1F705C0EE24FF248701EFEFF0E06E2FFF
:100C6000679566276795902F9F77D794DD24D79453
:100C70008E2F8695492F462B582F5D29B701CA0123
:100C80001F910F91FF90EF90DF900895FC01DB0121
:100C9000408151812281622F6F7770E0221F2227CD
:100CA000221F9381892F880F822B282F30E0991FD4
:100CB0009927991F11969C93119721153105A9F534
:100CC000411551056105710511F482E037C082E8D4
:100CD0009FEF13969C938E9312979A01AB0167E056
:100CE000220F331F441F551F6A95D1F783E08C9361
:100CF0000DC0220F331F441F551F12968D919C91DA
:100D00001397019713969C938E931297203080E04F
:100D1000380780E0480780E4580758F314962D936D
:100D20003D934D935C93179708952F3F310579F4C8
:100D3000411551056105710519F484E08C930895FE
:100D400064FF03C081E08C9312C01C9210C02F5727
:100D5000304013963C932E93129783E08C9387E058
:100D6000440F551F661F771F8A95D1F7706414963C
:100D70004D935D936D937C93179708951F93DC01BA
:100D8000FB019C91923008F447C08081823008F4C6
:100D900043C0943051F411961C91843099F58181AF
:100DA000682F70E0611B71093FC0843021F09230E0
:100DB00031F48230B9F18181882389F12DC01196F7
:100DC0001C9111978230F1F081811817D9F4129695
:100DD0002D913C911397828193818217930794F010
:100DE00028173907BCF014968D919D910D90BC91F8
:100DF000A02D2481358146815781281739074A075C
:100E00005B0718F4112341F00AC082179307A40767
:100E1000B50740F4112319F061E070E005C06FEFF1
:100E20007FEF02C060E070E0CB011F910895DF9377
:100E3000CF93CDB7DEB70E94FC0EA3E5B0E0E3E5AB
:100E4000F0E0808180648C93A3E5B0E0E3E5F0E01E
:100E5000808188608C93A3E5B0E0E3E5F0E08081D9
:100E60008F7E8C93A3E5B0E0E3E5F0E080818062C3
:100E70008C9381E063E041E00E940C13A3E5B0E0B5
:100E8000E3E5F0E080818E7F8C93A3E5B0E0E3E5BD
:100E9000F0E080818D7F8C93A3E5B0E0E3E5F0E0A6
:100EA000808184608C93CF91DF910895DF93CF93FD
:100EB000CDB7DEB7CF91DF910895DF93CF93CDB754
:100EC000DEB7CF91DF910895EF92FF920F931F93BA
:100ED000DF93CF93CDB7DEB760970FB6F894DEBF40
:100EE0000FBECDBF9A8789874B875C876D877E87CA
:100EF0001D821E821F821886E3E5F0E08081882F24
:100F000090E09C0127703070388B2F878F859889EF
:100F10008330910569F12F853889243031055CF4DF
:100F20008F8598898130910589F02F853889223005
:100F30003105A9F037C08F8598898430910509F172
:100F40002F8538892530310529F12CC081E090E0CA
:100F5000A0E0B0E08D839E83AF83B88723C088E094
:100F600090E0A0E0B0E08D839E83AF83B8871AC085
:100F700080E490E0A0E0B0E08D839E83AF83B887EB
:100F800011C080E091E0A0E0B0E08D839E83AF834C
:100F9000B88708C080E094E0A0E0B0E08D839E8335
:100FA000AF83B8876B857C858D859E8520E034E294
:100FB00044E759E40E941F02DC01CB017C018D0152
:100FC0006D817E818F8198850E94A9049B01AC016F
:100FD000C801B7010E941903DC01CB0189839A8300
:100FE000AB83BC8389859A859093D7018093D60182
:100FF0000E94560780E060960FB6F894DEBF0FBEE1
:10100000CDBFCF91DF911F910F91FF90EF90089589
:10101000DF93CF930F92CDB7DEB78983ECE5F0E095
:101020008981882F90E0982F882724E630E0B90145
:101030000E948D1ECB0180830F90CF91DF91089588
:10104000DF93CF93CDB7DEB70E94FC0EAFE4B0E0E4
:10105000EFE4F0E080818E7F8C93AFE4B0E0EFE4CA
:10106000F0E080818D7F8C93AEE4B0E0EEE4F0E0C0
:101070008081877F8C93AEE4B0E0EEE4F0E0808185
:1010800080618C93AFE4B0E0EFE4F0E080818F7B8F
:101090008C93AFE4B0E0EFE4F0E0808180688C9363
:1010A000AFE4B0E0EFE4F0E080818F7E8C93AFE4BA
:1010B000B0E0EFE4F0E080818F7D8C93AEE4B0E0AF
:1010C000EEE4F0E0808181608C93AEE4B0E0EEE489
:1010D000F0E080818D7F8C93AEE4B0E0EEE4F0E050
:1010E00080818B7F8C93CF91DF910895DF93CF9395
:1010F000CDB7DEB7A9E5B0E0E9E5F0E08081806139
:101100008C93CF91DF910895DF93CF93CDB7DEB766
:10111000A9E5B0E0E9E5F0E080818F7E8C93CF9186
:10112000DF910895EF92FF920F931F93DF93CF9378
:10113000CDB7DEB761970FB6F894DEBF0FBECDBF57
:101140009A8789874B875C876D877E871D821E8281
:101150001F821886EEE4F0E08081882F90E09C01E9
:1011600027703070398B288B888999898330910555
:1011700069F128893989243031055CF48889998995
:101180008130910589F02889398922303105A9F00B
:1011900038C0888999898430910509F1288939896D
:1011A0002530310529F12DC081E090E0A0E0B0E0CC
:1011B0008D839E83AF83B88727C088E090E0A0E04E
:1011C000B0E08D839E83AF83B8871EC080E490E03B
:1011D000A0E0B0E08D839E83AF83B88715C080E028
:1011E00091E0A0E0B0E08D839E83AF83B8870CC010
:1011F00080E094E0A0E0B0E08D839E83AF83B88769
:1012000003C031E03F8731C06B857C858D859E852D
:1012100020E034E244E759E40E941F02DC01CB01E4
:101220007C018D016D817E818F8198850E94A9044A
:101230009B01AC01C801B7010E941903DC01CB017D
:1012400089839A83AB83BC831092CE011092CF0125
:101250001092D0011092D10189859A859093D9017D
:101260008093D8010E9476081F868F8561960FB6FD
:10127000F894DEBF0FBECDBFCF91DF911F910F91CC
:10128000FF90EF900895CF92DF92EF92FF920F932D
:101290001F93DF93CF9300D00F92CDB7DEB78B8330
:1012A0001A821982E6E4F0E0808191819A83898331
:1012B0000F2EFAE4CF2EDD24F02D8B81E82EFF24B3
:1012C00000E010E089819A819C0140E050E0C80173
:1012D000B7010E946E1EDC01CB0124E630E040E045
:1012E00050E0BC01CD010E94A11EDA01C901F60146
:1012F000918380830F900F900F90CF91DF911F917A
:101300000F91FF90EF90DF90CF900895CF92DF92F2
:10131000EF92FF920F931F93DF93CF93CDB7DEB77A
:101320002B970FB6F894DEBF0FBECDBF8D834E83D3
:101330005F836887798719821A821B821C82EEE498
:10134000F0E08081882F90E09C01277030703B870F
:101350002A878A859B858330910569F1EA85FB851B
:10136000E430F1055CF42A853B852130310589F0B4
:101370008A859B8582309105A9F038C0EA85FB8576
:10138000E430F10509F12A853B852530310529F145
:101390002DC081E090E0A0E0B0E089839A83AB8328
:1013A000BC832CC088E090E0A0E0B0E089839A8301
:1013B000AB83BC8323C080E490E0A0E0B0E08983ED
:1013C0009A83AB83BC831AC080E091E0A0E0B0E0D8
:1013D00089839A83AB83BC8311C080E094E0A0E052
:1013E000B0E089839A83AB83BC8308C088E090E037
:1013F000A0E0B0E089839A83AB83BC8306E410E06D
:1014000089819A81AB81BC812E813F814885598534
:10141000BC01CD010E946E1E9B01AC0180E492E4F0
:10142000AFE0B0E0BC01CD010E94A11EDA01C9010C
:101430000197F801918380830F2EFAE4CF2EDD24EB
:10144000F02D8D81E82EFF2400E010E0E6E4F0E0CE
:10145000808191819C0140E050E0C801B7010E9469
:101460006E1EDC01CB0124E630E040E050E0BC0120
:10147000CD010E94A11EDA01C901F601918380838A
:101480002B960FB6F894DEBF0FBECDBFCF91DF9184
:101490001F910F91FF90EF90DF90CF900895DF9311
:1014A000CF93CDB7DEB7A5E4B0E0E5E4F0E080810E
:1014B00080648C93A5E4B0E0E5E4F0E0808188608E
:1014C0008C93A5E4B0E0E5E4F0E080818F7E8C931E
:1014D000A5E4B0E0E5E4F0E0808180628C9383E0F5
:1014E00067E041E00E940C13A5E4B0E0E5E4F0E021
:1014F00080818E7F8C93A5E4B0E0E5E4F0E080810C
:1015000082608C93A5E4B0E0E5E4F0E08081846043
:101510008C930E94FC0ECF91DF910895DF93CF93BF
:10152000CDB7DEB7CF91DF910895DF93CF93CDB7DD
:10153000DEB7CF91DF910895EF92FF920F931F9343
:10154000DF93CF93CDB7DEB760970FB6F894DEBFC9
:101550000FBECDBF9A8789874B875C876D877E8753
:101560001D821E821F821886E5E4F0E08081882FAC
:1015700090E09C0127703070388B2F878F85988979
:101580008330910569F12F853889243031055CF469
:101590008F8598898130910589F02F85388922308F
:1015A0003105A9F037C08F8598898430910509F1FC
:1015B0002F8538892530310529F12CC081E090E054
:1015C000A0E0B0E08D839E83AF83B88723C088E01E
:1015D00090E0A0E0B0E08D839E83AF83B8871AC00F
:1015E00080E490E0A0E0B0E08D839E83AF83B88775
:1015F00011C080E091E0A0E0B0E08D839E83AF83D6
:10160000B88708C080E094E0A0E0B0E08D839E83BE
:10161000AF83B8876B857C858D859E8520E034E21D
:1016200044E759E40E941F02DC01CB017C018D01DB
:101630006D817E818F8198850E94A9049B01AC01F8
:10164000C801B7010E941903DC01CB0189839A8389
:10165000AB83BC8389859A859093DB018093DA0103
:101660000E948E0A80E060960FB6F894DEBF0FBE2F
:10167000CDBFCF91DF911F910F91FF90EF90089513
:10168000DF93CF930F92CDB7DEB78983E3E4F0E029
:101690008981882F90E0982F882724E630E0B901CF
:1016A0000E948D1ECB0180830F90CF91DF91089512
:1016B000DF93CF930F92CDB7DEB78983A895A1E4CE
:1016C000B0E0E1E4F0E0808188618C93E1E4F0E057
:1016D0008981886080830F90CF91DF910895DF9397
:1016E000CF93CDB7DEB7A895A1E4B0E0E1E4F0E098
:1016F000808188618C93A1E4B0E0E1E4F0E0808136
:1017000088608C93CF91DF910895DF93CF93CDB70D
:10171000DEB7A895A1E4B0E0E1E4F0E08081886163
:101720008C93E1E4F0E01082CF91DF9108951F9255
:101730000F920FB60F9211242F933F934F935F9305
:101740006F937F938F939F93AF93BF93EF93FF9389
:10175000DF93CF93CDB7DEB78091CA019091CB01D3
:10176000A091CC01B091CD010196A11DB11D809336
:10177000CA019093CB01A093CC01B093CD012091ED
:10178000CA013091CB014091CC015091CD018091A3
:10179000DC019091DD01A091DE01B091DF012817FD
:1017A00039074A075B0768F01092CA011092CB0113
:1017B0001092CC011092CD01E091D601F091D701A9
:1017C0000995CF91DF91FF91EF91BF91AF919F91DB
:1017D0008F917F916F915F914F913F912F910F90DA
:1017E0000FBE0F901F9018951F920F920FB60F9279
:1017F00011242F933F934F935F936F937F938F9316
:101800009F93AF93BF93EF93FF93DF93CF93CDB7A6
:10181000DEB78091CA019091CB01A091CC01B0912B
:10182000CD010196A11DB11D8093CA019093CB01FA
:10183000A093CC01B093CD012091CA013091CB018E
:101840004091CC015091CD018091DC019091DD015E
:10185000A091DE01B091DF01281739074A075B0725
:1018600068F01092CA011092CB011092CC01109234
:10187000CD01E091D601F091D7010995CF91DF918B
:10188000FF91EF91BF91AF919F918F917F916F9158
:101890005F914F913F912F910F900FBE0F901F902E
:1018A00018951F920F920FB60F9211242F933F930A
:1018B0004F935F936F937F938F939F93AF93BF9358
:1018C000EF93FF93DF93CF93CDB7DEB78091CE0137
:1018D0009091CF01A091D001B091D1010196A11DAD
:1018E000B11D8093CE019093CF01A093D001B0930E
:1018F000D1012091CE013091CF014091D001509182
:10190000D1018091E0019091E101A091E201B091BB
:10191000E301281739074A075B0768F01092CE01E8
:101920001092CF011092D0011092D101E091D80114
:10193000F091D9010995CF91DF91FF91EF91BF917E
:10194000AF919F918F917F916F915F914F913F9157
:101950002F910F900FBE0F901F9018951F920F920E
:101960000FB60F9211242F933F934F935F936F9372
:101970007F938F939F93AF93BF93EF93FF93DF93E7
:10198000CF93CDB7DEB78091CE019091CF01A091DA
:10199000D001B091D1010196A11DB11D8093CE015E
:1019A0009093CF01A093D001B093D1012091CE01AB
:1019B0003091CF014091D0015091D1018091E0014F
:1019C0009091E101A091E201B091E301281739075C
:1019D0004A075B0768F01092CE011092CF01109277
:1019E000D0011092D101E091D801F091D90109956F
:1019F000CF91DF91FF91EF91BF91AF919F918F9127
:101A00007F916F915F914F913F912F910F900FBEFA
:101A10000F901F9018951F920F920FB60F921124DE
:101A20002F933F934F935F936F937F938F939F93E6
:101A3000AF93BF93EF93FF93DF93CF93CDB7DEB711
:101A40008091D2019091D301A091D401B091D501A0
:101A50000196A11DB11D8093D2019093D301A09353
:101A6000D401B093D5012091D2013091D30140919E
:101A7000D4015091D5018091E4019091E501A091AC
:101A8000E601B091E701281739074A075B0768F0BC
:101A90001092D2011092D3011092D4011092D5016C
:101AA000E091DA01F091DB010995CF91DF91FF918F
:101AB000EF91BF91AF919F918F917F916F915F91C6
:101AC0004F913F912F910F900FBE0F901F9018953F
:101AD0001F920F920FB60F9211242F933F934F93A3
:101AE0005F936F937F938F939F93AF93BF93EF9386
:101AF000FF93DF93CF93CDB7DEB78091D201909162
:101B0000D301A091D401B091D5010196A11DB11DC1
:101B10008093D2019093D301A093D401B093D501C7
:101B20002091D2013091D3014091D4015091D5013F
:101B30008091E4019091E501A091E601B091E70167
:101B4000281739074A075B0768F01092D2011092F4
:101B5000D3011092D4011092D501E091DA01F091F5
:101B6000DB010995CF91DF91FF91EF91BF91AF918B
:101B70009F918F917F916F915F914F913F912F91A5
:101B80000F900FBE0F901F901895DF93CF93CDB796
:101B9000DEB781E066E041E00E940C1381E065E081
:101BA00040E00E940C1381E067E040E00E940C13CB
:101BB00081E064E040E00E940C13ADE2B0E0EDE2B1
:101BC000F0E080818F7E8C93ADE2B0E0EDE2F0E05A
:101BD000808180628C93ADE2B0E0EDE2F0E0808144
:101BE000877F8C93ADE2B0E0EDE2F0E08081816030
:101BF0008C93ADE2B0E0EDE2F0E080818D7F8C93DC
:101C0000AEE2B0E0EEE2F0E080818E7F8C93ADE258
:101C1000B0E0EDE2F0E0808180648C93CF91DF91C1
:101C200008950F931F93DF93CF9300D0CDB7DEB706
:101C30008A8319820FE210E08A810E94BC0EF801AB
:101C40008083EEE2F0E080818823DCF781E0898305
:101C500089810F900F90CF91DF911F910F9108957F
:101C6000DF93CF9300D000D0CDB7DEB79B838A83BC
:101C700019828A819B81009719F489818C8313C012
:101C8000EA81FB8180810E94110E8A819B810196ED
:101C90009B838A83EA81FB818081882389F781E0A5
:101CA000898389818C838C810F900F900F900F9086
:101CB000CF91DF910895DF93CF9300D00F92CDB7EE
:101CC000DEB79B838A831982EEE2F0E0808188236D
:101CD000DCF7EFE2F0E08081EA81FB818083EFE2D4
:101CE000F0E080810E94BC0EEA81FB81808381E06C
:101CF000898389810F900F900F90CF91DF91089584
:101D0000DF93CF93CDB7DEB727970FB6F894DEBF3A
:101D10000FBECDBF9D838C831B828C819D810097DC
:101D200019F48B818E831EC08C819D819A83898357
:101D300089819A810E945B0EE981FA8180818F837B
:101D40008F81882311F081E08F838F8129813A81EF
:101D50002F5F3F4F3A832983882351F781E08B839C
:101D60008B818E838E8127960FB6F894DEBF0FBECF
:101D7000CDBFCF91DF910895DF93CF930F92CDB771
:101D8000DEB78983898182958F70282F8981882F7A
:101D900090E082959295907F9827807F9827822B5C
:101DA00089838981882F90E08C7C907095958795A8
:101DB00095958795282F8981882F90E0837390705F
:101DC000880F991F880F991F822B89838981882FFB
:101DD00090E08A7A907095958795282F8981882F31
:101DE00090E085759070880F991F822B8983898177
:101DF0000F90CF91DF910895DF93CF930F92CDB7DE
:101E0000DEB71982EFE5F0E0808188234CF0AFE582
:101E1000B0E0EFE5F0E0808180688C9381E0898319
:101E200089810F90CF91DF910895DF93CF930F9227
:101E3000CDB7DEB71982EFE5F0E0808188234CF45E
:101E4000AFE5B0E0EFE5F0E080818F778C9381E043
:101E5000898389810F90CF91DF910895DF93CF938C
:101E6000CDB7DEB72A970FB6F894DEBF0FBECDBF51
:101E70009B838A8319828A819B81009719F4298127
:101E80002A8736C1EA81FB818081813009F064C0F4
:101E9000ABE5B0E0EBE5F0E0808180648C93EA8113
:101EA000FB818181282F30E03987288788859985B3
:101EB0008130910521F128853985223031052CF4B6
:101EC00088859985009761F053C02885398522302F
:101ED000310521F1888599858330910571F148C0DC
:101EE000A5E5B0E0E5E5F0E080818E7F8C93A5E587
:101EF000B0E0E5E5F0E080818D7F8C9339C0A5E509
:101F0000B0E0E5E5F0E0808181608C93A5E5B0E08C
:101F1000E5E5F0E080818D7F8C932AC0A5E5B0E0F7
:101F2000E5E5F0E080818E7F8C93A5E5B0E0E5E506
:101F3000F0E0808182608C931BC0A5E5B0E0E5E510
:101F4000F0E0808181608C93A5E5B0E0E5E5F0E00C
:101F5000808182608C930CC0EA81FB818081882320
:101F600039F4ABE5B0E0EBE5F0E080818F7B8C935A
:101F70008A819B81FC0132968081813009F066C0A4
:101F8000ABE5B0E0EBE5F0E0808180688C938A817E
:101F90009B81FC0132968181282F30E03F832E8384
:101FA0008E819F818130910521F12E813F812230E8
:101FB00031052CF48E819F81009761F055C02E81F0
:101FC0003F812230310521F18E819F81833091053F
:101FD00071F14AC0A5E5B0E0E5E5F0E080818B7FD6
:101FE0008C93A5E5B0E0E5E5F0E08081877F8C93F8
:101FF0003BC0A5E5B0E0E5E5F0E0808184608C932E
:10200000A5E5B0E0E5E5F0E08081877F8C932CC00A
:10201000A5E5B0E0E5E5F0E080818B7F8C93A5E558
:10202000B0E0E5E5F0E0808188608C931DC0A5E517
:10203000B0E0E5E5F0E0808184608C93A5E5B0E058
:10204000E5E5F0E0808188608C930EC08A819B81F9
:10205000FC0132968081882339F4ABE5B0E0EBE5F2
:10206000F0E080818F778C938A819B81FC0134968C
:102070008081813059F5ABE5B0E0EBE5F0E080819F
:1020800080628C938A819B81FC0134968181282F08
:1020900030E03D832C838C819D818230910531F02D
:1020A0002C813D812330310549F01EC0A4E5B0E00C
:1020B000E4E5F0E080818F7B8C9316C0A4E5B0E06E
:1020C000E4E5F0E0808180648C930EC08A819B817E
:1020D000FC0134968081882339F4ABE5B0E0EBE570
:1020E000F0E080818F7D8C9381E0898339813A870C
:1020F0008A852A960FB6F894DEBF0FBECDBFCF916A
:10210000DF910895DF93CF9300D000D0CDB7DEB735
:102110008A8319828A81282F30E03C832B838B812C
:102120009C818130910589F02B813C8122303105E1
:10213000A1F08B819C810097B9F4ABE5B0E0EBE5B1
:10214000F0E0808180648C930FC0ABE5B0E0EBE5FC
:10215000F0E0808180688C9307C0ABE5B0E0EBE5F0
:10216000F0E0808180628C9381E0898389810F9087
:102170000F900F900F90CF91DF910895DF93CF9341
:1021800000D000D00F92CDB7DEB78A8319828A8142
:10219000833018F029812D832EC08A81282F30E0CA
:1021A0003C832B838B819C818130910589F02B812D
:1021B0003C8122303105A1F08B819C810097B9F4DC
:1021C000ABE5B0E0EBE5F0E080818F7B8C930FC056
:1021D000ABE5B0E0EBE5F0E080818F778C9307C052
:1021E000ABE5B0E0EBE5F0E080818F7D8C9381E0A2
:1021F000898399819D838D810F900F900F900F900F
:102200000F90CF91DF910895DF93CF93CDB7DEB7D5
:102210002C970FB6F894DEBF0FBECDBF8A836B83B9
:1022200019828A81833018F48B81843018F02981D7
:102230002C87EFC08A81282F30E03B872A878A8548
:102240009B858130910509F466C02A853B85223043
:10225000310509F4BBC08A859B85009709F0D5C07C
:102260008B81282F30E039872887888599858130B0
:102270009105A9F028853985223031052CF488850F
:1022800099850097D9F0C1C028853985223031055C
:1022900021F1888599858330910571F1B6C0A5E556
:1022A000B0E0E5E5F0E0808181608C93A5E5B0E0E9
:1022B000E5E5F0E080818D7F8C93A7C0A5E5B0E0D7
:1022C000E5E5F0E080818E7F8C93A5E5B0E0E5E563
:1022D000F0E080818D7F8C9398C0A5E5B0E0E5E5C6
:1022E000F0E080818E7F8C93A5E5B0E0E5E5F0E03D
:1022F000808182608C9389C0A5E5B0E0E5E5F0E0DF
:10230000808181608C93A5E5B0E0E5E5F0E0808117
:1023100082608C937AC08B81282F30E03F832E839C
:102320008E819F8181309105A9F02E813F812230DD
:1023300031052CF48E819F810097D9F066C02E81E3
:102340003F812230310521F18E819F8183309105BB
:1023500071F15BC0A5E5B0E0E5E5F0E08081846067
:102360008C93A5E5B0E0E5E5F0E08081877F8C9374
:102370004CC0A5E5B0E0E5E5F0E080818B7F8C9373
:10238000A5E5B0E0E5E5F0E08081877F8C933DC076
:10239000A5E5B0E0E5E5F0E080818B7F8C93A5E5D5
:1023A000B0E0E5E5F0E0808188608C932EC0A5E583
:1023B000B0E0E5E5F0E0808184608C93A5E5B0E0D5
:1023C000E5E5F0E0808188608C931FC08B81282F29
:1023D00030E03D832C838C819D818230910531F0EA
:1023E0002C813D812330310549F00FC0A4E5B0E0D8
:1023F000E4E5F0E080818F7B8C9307C0A4E5B0E03A
:10240000E4E5F0E0808180648C9381E08983398108
:102410003C878C852C960FB6F894DEBF0FBECDBFDF
:10242000CF91DF910895DF93CF9300D000D00F922A
:10243000CDB7DEB79B838A836C8319828A819B81A7
:10244000009729F483E0898389818D8318C08C816A
:10245000833028F084E0898389818D8310C08C814A
:10246000882F90E0880F991FFC01E851FE4F8A8168
:102470009B819183808381E0898389818D838D8194
:102480000F900F900F900F900F90CF91DF910895C4
:102490001F920F920FB60F9211242F933F934F93D9
:1024A0005F936F937F938F939F93AF93BF93EF93BC
:1024B000FF93DF93CF93CDB7DEB78091E801909182
:1024C000E901009729F0E091E801F091E90109950F
:1024D000CF91DF91FF91EF91BF91AF919F918F913C
:1024E0007F916F915F914F913F912F910F900FBE10
:1024F0000F901F9018951F920F920FB60F921124F4
:102500002F933F934F935F936F937F938F939F93FB
:10251000AF93BF93EF93FF93DF93CF93CDB7DEB726
:102520008091EA019091EB01009729F0E091EA0196
:10253000F091EB010995CF91DF91FF91EF91BF9160
:10254000AF919F918F917F916F915F914F913F914B
:102550002F910F900FBE0F901F9018951F920F9202
:102560000FB60F9211242F933F934F935F936F9366
:102570007F938F939F93AF93BF93EF93FF93DF93DB
:10258000CF93CDB7DEB78091EC019091ED0100972C
:1025900029F0E091EC01F091ED010995CF91DF91E7
:1025A000FF91EF91BF91AF919F918F917F916F912B
:1025B0005F914F913F912F910F900FBE0F901F9001
:1025C0001895DF93CF930F92CDB7DEB71982EAE368
:1025D000F0E080EF8083EBE3F0E083EC8083E7E3DF
:1025E000F0E080EF8083E8E3F0E083EC8083E4E3D5
:1025F000F0E080EF8083E5E3F0E083EC8083E1E3CB
:10260000F0E080EF8083E2E3F0E083EC8083898177
:102610000F90CF91DF910895DF93CF93CDB7DEB7C1
:1026200027970FB6F894DEBF0FBECDBF8A836B83AA
:102630004C8319828A81843008F0DEC08B81883017
:1026400008F0DAC08C81823008F0D6C08A81282F49
:1026500030E03F832E838E819F818130910509F484
:1026600043C02E813F81223031052CF48E819F8121
:10267000009771F0BCC02E813F812230310509F4F2
:102680005FC08E819F818330910509F485C0AFC002
:102690008C818130A1F4AAE3B0E0EAE3F0E080812C
:1026A000482F8B81282F30E081E090E0022E02C07D
:1026B000880F991F0A94E2F7842B8C9398C0AAE3A1
:1026C000B0E0EAE3F0E08081482F8B81282F30E0F2
:1026D00081E090E0022E02C0880F991F0A94E2F771
:1026E000809584238C9383C08C818130A1F4A7E3EF
:1026F000B0E0E7E3F0E08081482F8B81282F30E0C5
:1027000081E090E0022E02C0880F991F0A94E2F740
:10271000842B8C936CC0A7E3B0E0E7E3F0E080810A
:10272000482F8B81282F30E081E090E0022E02C0FC
:10273000880F991F0A94E2F7809584238C9357C0E1
:102740008C818130A1F4A4E3B0E0E4E3F0E0808187
:10275000482F8B81282F30E081E090E0022E02C0CC
:10276000880F991F0A94E2F7842B8C9340C0A4E34E
:10277000B0E0E4E3F0E08081482F8B81282F30E047
:1027800081E090E0022E02C0880F991F0A94E2F7C0
:10279000809584238C932BC08C818130A1F4A1E39C
:1027A000B0E0E1E3F0E08081482F8B81282F30E01A
:1027B00081E090E0022E02C0880F991F0A94E2F790
:1027C000842B8C9314C0A1E3B0E0E1E3F0E08081BE
:1027D000482F8B81282F30E081E090E0022E02C04C
:1027E000880F991F0A94E2F7809584238C9381E0E7
:1027F000898399819D8302C029812D838D812796AC
:102800000FB6F894DEBF0FBECDBFCF91DF91089514
:10281000DF93CF93CDB7DEB727970FB6F894DEBF1F
:102820000FBECDBF8A836B834C8319828A8184302B
:1028300008F0DEC08B81883008F0DAC08C818230ED
:1028400008F0D6C08A81282F30E03F832E838E8106
:102850009F818130910509F443C02E813F81223050
:1028600031052CF48E819F81009771F0BCC02E81C0
:102870003F812230310509F45FC08E819F81833012
:10288000910509F485C0AFC08C818823A1F0ABE32A
:10289000B0E0EBE3F0E08081482F8B81282F30E01F
:1028A00081E090E0022E02C0880F991F0A94E2F79F
:1028B000842B8C9398C0ABE3B0E0EBE3F0E0808135
:1028C000482F8B81282F30E081E090E0022E02C05B
:1028D000880F991F0A94E2F7809584238C9383C014
:1028E0008C818823A1F0A8E3B0E0E8E3F0E08081E8
:1028F000482F8B81282F30E081E090E0022E02C02B
:10290000880F991F0A94E2F7842B8C936CC0A8E37C
:10291000B0E0E8E3F0E08081482F8B81282F30E0A1
:1029200081E090E0022E02C0880F991F0A94E2F71E
:10293000809584238C9357C08C818823A1F0A5E3D4
:10294000B0E0E5E3F0E08081482F8B81282F30E074
:1029500081E090E0022E02C0880F991F0A94E2F7EE
:10296000842B8C9340C0A5E3B0E0E5E3F0E08081E8
:10297000482F8B81282F30E081E090E0022E02C0AA
:10298000880F991F0A94E2F7809584238C932BC0BB
:102990008C818823A1F0A2E3B0E0E2E3F0E0808143
:1029A000482F8B81282F30E081E090E0022E02C07A
:1029B000880F991F0A94E2F7842B8C9314C0A2E32A
:1029C000B0E0E2E3F0E08081482F8B81282F30E0F7
:1029D00081E090E0022E02C0880F991F0A94E2F76E
:1029E000809584238C9381E0898399819D8302C0A3
:1029F00029812D838D8127960FB6F894DEBF0FBEF7
:102A0000CDBFCF91DF910895DF93CF93CDB7DEB7E0
:102A100028970FB6F894DEBF0FBECDBF8A836B83B5
:102A20005D834C8319828C819D81009729F483E01A
:102A30008983298128877FC08A81843008F079C002
:102A40008B81883008F075C08A81482F50E05F8301
:102A50004E838E819F818130910559F12E813F8176
:102A60002230310534F44E815F814115510569F002
:102A70005BC08E819F818230910579F12E813F81EB
:102A80002330310509F43DC04FC0E9E3F0E0808117
:102A9000282F30E08B81882F90E0A90102C0559546
:102AA00047958A95E2F7CA018170EC81FD818083A8
:102AB0003BC0E6E3F0E08081282F30E08B81882F57
:102AC00090E0A90102C0559547958A95E2F7CA01A1
:102AD0008170EC81FD81808327C0E3E3F0E0808199
:102AE000282F30E08B81882F90E0A90102C05595F6
:102AF00047958A95E2F7CA018170EC81FD81808358
:102B000013C0E0E3F0E08081282F30E08B81882F34
:102B100090E0A90102C0559547958A95E2F7CA0150
:102B20008170EC81FD81808381E0898359815887A0
:102B300002C089818887888528960FB6F894DEBF01
:102B40000FBECDBFCF91DF910895DF93CF9300D01B
:102B500000D000D0CDB7DEB78A836B8319828A811B
:102B6000843008F077C08B81883008F073C08A8188
:102B7000282F30E03E832D838D819E818130910509
:102B800049F12D813E81223031052CF48D819E81C9
:102B9000009761F05AC02D813E812230310571F1DC
:102BA0008D819E8183309105E9F14FC0ABE3B0E0A8
:102BB000EBE3F0E08081482F8B81282F30E081E02B
:102BC00090E0022E02C0880F991F0A94E2F7842732
:102BD0008C933BC0A8E3B0E0E8E3F0E08081482FAD
:102BE0008B81282F30E081E090E0022E02C0880F18
:102BF000991F0A94E2F784278C9327C0A5E3B0E0DD
:102C0000E5E3F0E08081482F8B81282F30E081E0E0
:102C100090E0022E02C0880F991F0A94E2F78427E1
:102C20008C9313C0A2E3B0E0E2E3F0E08081482F90
:102C30008B81282F30E081E090E0022E02C0880FC7
:102C4000991F0A94E2F784278C9381E08983998104
:102C50009C8302C029812C838C8126960FB6F89420
:102C6000DEBF0FBECDBFCF91DF910895DF93CF932D
:102C700000D000D000D0CDB7DEB78A836B83198235
:102C80008A81843008F057C08B81823008F053C0AD
:102C90008A81282F30E03E832D838D819E81813073
:102CA000910509F12D813E81223031052CF48D8171
:102CB0009E81009761F03AC02D813E81223031051E
:102CC000F1F08D819E818330910529F12FC08B8198
:102CD000813029F4EAE3F0E08FEF808327C0EAE354
:102CE000F0E0108223C08B81813029F4E7E3F0E02B
:102CF0008FEF80831BC0E7E3F0E0108217C08B8169
:102D0000813029F4E4E3F0E08FEF80830FC0E4E347
:102D1000F0E010820BC08B81813029F4E1E3F0E018
:102D20008FEF808303C0E1E3F0E0108281E08983CC
:102D300099819C8302C029812C838C8126960FB6B1
:102D4000F894DEBF0FBECDBFCF91DF910895DF9322
:102D5000CF9300D000D000D0CDB7DEB78A836B838D
:102D600019828A81843008F057C08B81823008F044
:102D700053C08A81282F30E03E832D838D819E8130
:102D80008130910509F12D813E81223031052CF4ED
:102D90008D819E81009761F03AC02D813E81223065
:102DA0003105F1F08D819E818330910529F12FC08D
:102DB0008B81882329F0EBE3F0E08FEF808327C03D
:102DC000EBE3F0E0108223C08B81882329F0E8E355
:102DD000F0E08FEF80831BC0E8E3F0E0108217C0C3
:102DE0008B81882329F0E5E3F0E08FEF80830FC02B
:102DF000E5E3F0E010820BC08B81882329F0E2E349
:102E0000F0E08FEF808303C0E2E3F0E0108281E026
:102E1000898399819C8302C029812C838C81269689
:102E20000FB6F894DEBF0FBECDBFCF91DF910895EE
:102E3000DF93CF93CDB7DEB7E9970FB6F894DEBF37
:102E40000FBECDBF19AE82E066E041E00E940C13D8
:102E500082E060E041E00E940C1382E067E041E024
:102E60000E940C1383E063E041E00E940C1383E0B6
:102E700062E041E00E940C1383E061E041E00E94C7
:102E80000C1383E060E041E00E940C1380E090E0CE
:102E9000ACE0B2E48DAB9EABAFABB8AF6DA97EA991
:102EA0008FA998AD20E030E04AE753E40E941F026A
:102EB000DC01CB0189AB9AABABABBCAB69A97AA9FE
:102EC0008BA99CA920E030E040E85FE30E94250444
:102ED00088232CF481E090E098AB8FA73FC069A9CC
:102EE0007AA98BA99CA920E03FEF4FE757E40E9405
:102EF000C50318164CF56DA97EA98FA998AD20E0E1
:102F000030E040E251E40E941F02DC01CB01BC0131
:102F1000CD010E944900DC01CB0198AB8FA70FC007
:102F200089E190E09EA78DA78DA59EA50197F1F759
:102F30009EA78DA78FA598A9019798AB8FA78FA55E
:102F400098A9009769F714C069A97AA98BA99CA9C7
:102F50000E944900DC01CB0198AB8FA78FA598A9EF
:102F60009CA78BA78BA59CA50197F1F79CA78BA786
:102F700080E20E94B81A80E20E94B81A80E80E949B
:102F8000B81A80E090E0A0E8BFE38FA398A7A9A7B4
:102F9000BAA76FA178A589A59AA520E030E04AE7F5
:102FA00053E40E941F02DC01CB018BA39CA3ADA3C1
:102FB000BEA36BA17CA18DA19EA120E030E040E8E2
:102FC0005FE30E94250488232CF481E090E09AA31B
:102FD00089A33FC06BA17CA18DA19EA120E03FEF02
:102FE0004FE757E40E94C50318164CF56FA178A56A
:102FF00089A59AA520E030E040E251E40E941F023A
:10300000DC01CB01BC01CD010E944900DC01CB01F8
:103010009AA389A30FC089E190E098A38F8F8F8D29
:1030200098A10197F1F798A38F8F89A19AA1019791
:103030009AA389A389A19AA1009769F714C06BA1EB
:103040007CA18DA19EA10E944900DC01CB019AA325
:1030500089A389A19AA19E8F8D8F8D8D9E8D0197B9
:10306000F1F79E8F8D8F80E00E94B81A80EF0E944A
:10307000B81A80E090E0A0E8BFE3898F9A8FAB8F09
:10308000BC8F698D7A8D8B8D9C8D20E030E04AE776
:1030900053E40E941F02DC01CB018D8B9E8BAF8B12
:1030A000B88F6D897E898F89988D20E030E040E867
:1030B0005FE30E94250488232CF481E090E09C8B40
:1030C0008B8B3FC06D897E898F89988D20E03FEF83
:1030D0004FE757E40E94C50318164CF5698D7A8DA9
:1030E0008B8D9C8D20E030E040E251E40E941F0275
:1030F000DC01CB01BC01CD010E944900DC01CB0108
:103100009C8B8B8B0FC089E190E09A8B898B89898E
:103110009A890197F1F79A8B898B8B899C89019702
:103120009C8B8B8B8B899C89009769F714C06D8968
:103130007E898F89988D0E944900DC01CB019C8B90
:103140008B8B8B899C89988B8F878F85988901972A
:10315000F1F7988B8F8780E00E94B81A81E00E9477
:10316000B81A80E090E0A0E0B0E48B879C87AD8740
:10317000BE876B857C858D859E8520E030E04AE7A3
:1031800053E40E941F02DC01CB018F839887A9873B
:10319000BA876F81788589859A8520E030E040E89C
:1031A0005FE30E94250488232CF481E090E09E8355
:1031B0008D833FC06F81788589859A8520E03FEFB8
:1031C0004FE757E40E94C50318164CF56B857C85C4
:1031D0008D859E8520E030E040E251E40E941F0290
:1031E000DC01CB01BC01CD010E944900DC01CB0117
:1031F0009E838D830FC089E190E09C838B838B81BC
:103200009C810197F1F79C838B838D819E8101972F
:103210009E838D838D819E81009769F714C06F8195
:10322000788589859A850E944900DC01CB019E83BF
:103230008D838D819E819A83898389819A8101976B
:10324000F1F79A83898380E00E94B81A86E00E9491
:10325000B81A81E08093EE0181E089AF89ADE996EB
:103260000FB6F894DEBF0FBECDBFCF91DF910895AA
:10327000DF93CF93CDB7DEB76E970FB6F894DEBF6E
:103280000FBECDBF8E8F1D8E8E8D82958F70982F25
:10329000917083E060E0492F0E9408148E8D829522
:1032A00086958770982F917083E061E0492F0E9486
:1032B00008148E8D8295869586958370982F9170CF
:1032C00083E062E0492F0E9408148E8D982F991F89
:1032D0009927991F83E063E0492F0E94081482E038
:1032E00067E041E00E94081480E090E0A0E0B0E4D4
:1032F000898F9A8FAB8FBC8F698D7A8D8B8D9C8DCA
:1033000020E030E04AE753E40E941F02DC01CB01D9
:103310008D8B9E8BAF8BB88F6D897E898F89988DB1
:1033200020E030E040E85FE30E94250488232CF48D
:1033300081E090E09C8B8B8B3FC06D897E898F896B
:10334000988D20E03FEF4FE757E40E94C503181621
:103350004CF5698D7A8D8B8D9C8D20E030E040E2BC
:1033600051E40E941F02DC01CB01BC01CD010E948F
:103370004900DC01CB019C8B8B8B0FC089E190E075
:103380009A8B898B89899A890197F1F79A8B898B16
:103390008B899C8901979C8B8B8B8B899C8900974F
:1033A00069F714C06D897E898F89988D0E944900C4
:1033B000DC01CB019C8B8B8B8B899C89988B8F87B5
:1033C0008F8598890197F1F7988B8F8782E067E066
:1033D00040E00E9408148091EE01882309F4A2C005
:1033E0008E8D982F917083E060E0492F0E94081421
:1033F0008E8D8695982F917083E061E0492F0E9411
:1034000008148E8D86958695982F917083E062E0E2
:10341000492F0E9408148E8D869586958695982F43
:10342000917083E063E0492F0E94081482E067E016
:1034300041E00E94081480E090E0A0E0B0E48B87B7
:103440009C87AD87BE876B857C858D859E8520E0BA
:1034500030E04AE753E40E941F02DC01CB018F8376
:103460009887A987BA876F81788589859A8520E0B2
:1034700030E040E85FE30E94250488232CF481E0DB
:1034800090E09E838D833FC06F81788589859A8582
:1034900020E03FEF4FE757E40E94C50318164CF5B4
:1034A0006B857C858D859E8520E030E040E251E48F
:1034B0000E941F02DC01CB01BC01CD010E9449002A
:1034C000DC01CB019E838D830FC089E190E09C835A
:1034D0008B838B819C810197F1F79C838B838D81FA
:1034E0009E8101979E838D838D819E81009769F7D0
:1034F00014C06F81788589859A850E944900DC0116
:10350000CB019E838D838D819E819A83898389815E
:103510009A810197F1F79A83898382E067E040E01E
:103520000E94081481E08D8F8D8D6E960FB6F894F1
:10353000DEBF0FBECDBFCF91DF910895DF93CF9354
:1035400000D0CDB7DEB78A83198282E066E041E021
:103550000E94081482E060E040E00E9408148A8122
:103560000E94381989810F900F90CF91DF910895B3
:10357000DF93CF9300D0CDB7DEB78A83198282E084
:1035800066E040E00E94081482E060E040E00E94B3
:1035900008148A810E94381981E0898389810F90FB
:1035A0000F90CF91DF910895DF93CF9300D000D09B
:1035B0000F92CDB7DEB79C838B831A828B819C815F
:1035C0000097F9F019820FC08981282F30E08B8194
:1035D0009C81FC01E20FF31F908189818F5F8983B9
:1035E000892F0E949E1A8981282F30E08B819C812F
:1035F000FC01E20FF31F8081882331F78A818D83DC
:1036000004C081E08A838A818D838D810F900F9021
:103610000F900F900F90CF91DF910895DF93CF938C
:10362000CDB7DEB7A0970FB6F894DEBF0FBECDBF03
:103630006B8F7C8F8D8F9E8F4F8F1E821D821C8281
:103640001B821A828B8D9C8DAD8DBE8DBB2394F415
:103650008DE20E949E1A8B8D9C8DAD8DBE8DB09596
:10366000A095909581959F4FAF4FBF4F8B8F9C8FAB
:10367000AD8FBE8F8B8D9C8DAD8DBE8D0097A105BE
:10368000B10509F04BC08D81282F30E0CE0107969F
:10369000FC01E20FF31F80E380838D818F5F8D83B8
:1036A0008D81282F30E0CE010796FC01E20FF31F39
:1036B00010828E8188A37FC08F8D282F30E040E05C
:1036C00050E08B8D9C8DAD8DBE8DBC01CD010E94D7
:1036D000C31EDC01CB018C838D81282F30E08C81CF
:1036E000482F405DCE010796FC01E20FF31F408397
:1036F0008D818F5F8D838F8D282F30E040E050E0EB
:103700008B8D9C8DAD8DBE8DBC01CD010E94C31EE5
:10371000DA01C9018B8F9C8FAD8FBE8F8B8D9C8DF5
:10372000AD8DBE8D0097A105B10531F68D81282F95
:1037300030E0CE010796FC01E20FF31F10828D816D
:1037400081508A832CC08B81282F30E0CE010796D0
:10375000FC01E20FF31F808189838B81482F50E0A9
:103760008A81282F30E0CE010796FC01E20FF31F7B
:103770002081CE010796FC01E40FF51F20838A818A
:10378000282F30E0CE010796FC01E20FF31F89815C
:1037900080838B818F5F8B838A8181508A839B8119
:1037A0008A81981780F2CE0107960E94D41A81E090
:1037B0008E838E8188A388A1A0960FB6F894DEBF71
:1037C0000FBECDBFCF91DF910895DF93CF93CDB7DB
:1037D000DEB727970FB6F894DEBF0FBECDBF8B8341
:1037E0006C831A828B81813118F48C81833018F0BC
:1037F0002A812F8323C019828C81282F30E03E83B9
:103800002D838D819E818130910531F02D813E8106
:103810002230310521F007C08B81898305C08B815F
:10382000805C898301C01A8289818068898389814B
:103830000E94B81A81E08A833A813F838F8127965C
:103840000FB6F894DEBF0FBECDBFCF91DF910895C4
:10385000DF93CF93CDB7DEB727970FB6F894DEBFCF
:103860000FBECDBF9D838C836E831B828C819D8117
:10387000009719F08E81893018F08B818F832AC0D0
:103880008E81882F90E0880F991F880F991F880FCD
:10389000991F8A838A8180648A838A810E94B81AE8
:1038A00019820EC08981282F30E08C819D81FC0116
:1038B000E20FF31F80810E949E1A89818F5F8983A6
:1038C0008981883078F382E00E94B81A81E08B8386
:1038D0008B818F838F8127960FB6F894DEBF0FBE42
:1038E000CDBFCF91DF910895DF93CF9300D000D06B
:1038F000CDB7DEB78A836B834C8319828C816B8151
:103900000E94E51B8A810E949E1A81E08983898139
:103910000F900F900F900F90CF91DF910895DF934C
:10392000CF93CDB7DEB768970FB6F894DEBF0FBE62
:10393000CDBF0E9417070E944F0A0E94181782E00D
:1039400063E041E00E940C1382E064E041E00E94E9
:103950000C1382E065E041E00E940C130E94C50D4B
:103960001A8ACE0142960E945B0E8A8982958695BC
:103970008770898B8A8982958F708170888B8A89FC
:103980008695869583708F878989282F30E0388FB8
:103990002F8B8F89988D8230910509F4B1C02F89C2
:1039A000388D233031055CF48F89988D0097A1F014
:1039B0002F89388D2130310509F458C01CC18F89F9
:1039C000988D8330910509F4C5C02F89388D243036
:1039D000310509F4E8C00FC180E060E00E94E51BFA
:1039E00081E00E94B81A80E690E00E94D41A80E03C
:1039F00062E00E94E51B8889813061F58F85282F60
:103A000030E03E8B2D8B8D899E898130910591F020
:103A10002D893E8922303105A9F08D899E89009734
:103A200009F0E9C088E690E00E94D41A84E60E947A
:103A30000808E1C082E790E00E94D41A8BE90E9456
:103A40000808D9C08FE790E00E94D41A8FEF0E9437
:103A50000808D1C08889882309F0CDC08AE890E0A1
:103A60000E94D41A80E00E940808C5C080E060E08F
:103A70000E94E51B81E00E94B81A8FE890E00E9446
:103A8000D41A80E062E00E94E51B8889813061F5EC
:103A90008F85282F30E03C8B2B8B8B899C89813044
:103AA000910591F02B893C8922303105A9F08B8951
:103AB0009C89009709F09FC088E690E00E94D41A84
:103AC00084E60E94400B97C082E790E00E94D41ADF
:103AD0008BE90E94400B8FC08FE790E00E94D41AC0
:103AE0008FEF0E94400B87C08889882309F083C02C
:103AF0008AE890E00E94D41A80E00E94400B7BC0CC
:103B000080E060E00E94E51B81E00E94B81A87E92E
:103B100090E00E94D41A80E062E00E94E51B888950
:103B2000882351F48AE890E00E94D41A82E065E08C
:103B300040E00E9408145FC08889813009F05BC0B2
:103B400080EA90E00E94D41A82E065E041E00E94A1
:103B5000081451C080E060E00E94E51B81E00E94F3
:103B6000B81A84EA90E00E94D41A80E062E00E94D1
:103B7000E51B8889882351F48AE890E00E94D41AD2
:103B800082E064E040E00E94081435C088898130FA
:103B900091F580EA90E00E94D41A82E064E041E06E
:103BA0000E94081428C080E060E00E94E51B81E0CC
:103BB0000E94B81A80EB90E00E94D41A80E062E084
:103BC0000E94E51B8889882351F48AE890E00E94CE
:103BD000D41A82E063E040E00E9408140CC0888997
:103BE000813049F480EA90E00E94D41A82E063E0D8
:103BF00041E00E94081480E090E0AAEFB3E48B87D4
:103C00009C87AD87BE876B857C858D859E8520E0F2
:103C100030E04AE753E40E941F02DC01CB018F83AE
:103C20009887A987BA876F81788589859A8520E0EA
:103C300030E040E85FE30E94250488232CF481E013
:103C400090E09E838D833FC06F81788589859A85BA
:103C500020E03FEF4FE757E40E94C50318164CF5EC
:103C60006B857C858D859E8520E030E040E251E4C7
:103C70000E941F02DC01CB01BC01CD010E94490062
:103C8000DC01CB019E838D830FC089E190E09C8392
:103C90008B838B819C810197F1F79C838B838D8132
:103CA0009E8101979E838D838D819E81009769F708
:103CB00058CE6F81788589859A850E944900DC01FC
:103CC000CB019E838D838D819E819A838983898197
:103CD0009A810197F1F79A83898343CE629FD0013D
:103CE000739FF001829FE00DF11D649FE00DF11DB7
:103CF000929FF00D839FF00D749FF00D659FF00D66
:103D00009927729FB00DE11DF91F639FB00DE11D52
:103D1000F91FBD01CF0111240895AA1BBB1B51E15E
:103D200007C0AA1FBB1FA617B70710F0A61BB70B2B
:103D3000881F991F5A95A9F780959095BC01CD01D0
:103D40000895A1E21A2EAA1BBB1BFD010DC0AA1FDC
:103D5000BB1FEE1FFF1FA217B307E407F50720F0F4
:103D6000A21BB30BE40BF50B661F771F881F991F6F
:103D70001A9469F760957095809590959B01AC01B8
:103D8000BD01CF01089597FB092E05260ED057FDE2
:103D900004D0D7DF0AD0001C38F4509540953095F8
:103DA00021953F4F4F4F5F4F0895F6F790958095BF
:103DB000709561957F4F8F4F9F4F08952F923F923F
:103DC0004F925F926F927F928F929F92AF92BF922B
:103DD000CF92DF92EF92FF920F931F93CF93DF93D7
:103DE000CDB7DEB7CA1BDB0B0FB6F894DEBF0FBE34
:103DF000CDBF09942A88398848885F846E847D8481
:103E00008C849B84AA84B984C884DF80EE80FD8082
:103E10000C811B81AA81B981CE0FD11D0FB6F894F8
:0E3E2000DEBF0FBECDBFED010895F894FFCFB9
:103E2E004D6F746F722031004C6F57205370656563
:103E3E0064004D656469756D205370656564004856
:103E4E00696768205370656564004F464620004DD3
:103E5E006F746F722032004C4544315F52454400FE
:103E6E004F4E20004C4544325F59454C4C4F570045
:103E7E004C4544335F475245454E0000000000005C
:103E8E0000000000010202030303030404040404FF
:103E9E0004040405050505050505050505050505C7
:103EAE0005050506060606060606060606060606A7
:103EBE000606060606060606060606060606060694
:103ECE000606060707070707070707070707070777
:103EDE000707070707070707070707070707070764
:103EEE000707070707070707070707070707070754
:103EFE000707070707070707070707070707070744
:103F0E000707070808080808080808080808080826
:103F1E000808080808080808080808080808080813
:103F2E000808080808080808080808080808080803
:103F3E0008080808080808080808080808080808F3
:103F4E0008080808080808080808080808080808E3
:103F5E0008080808080808080808080808080808D3
:103F6E0008080808080808080808080808080808C3
:103F7E0008080808080808080808080808080808B3
:0A3F8E00080808010300000000000D
:00000001FF
