:100000000C942A000C943F000C943F000C943F0089
:100010000C943F000C943F000C943F000C943F0064
:100020000C943F000C943F000C943F000C943F0054
:100030000C943F000C943F000C943F000C943F0044
:100040000C943F000C943F000C943F000C943F0034
:100050000C943F0011241FBECFE5D8E0DEBFCDBF1A
:1000600011E0A0E6B0E0E6EFF4E202C005900D92E8
:10007000A230B107D9F70E9479100C9479120C9430
:100080000000EF92FF920F931F937B018C0120E001
:1000900030E040E05FE40E94410388238CF0C80117
:1000A000B70120E030E040E05FE40E94B9010E9427
:1000B000A1039B01AC01205030404040504806C095
:1000C000C801B7010E94A1039B01AC01B901CA019B
:1000D0001F910F91FF90EF900895A0E0B0E0E3E74B
:1000E000F0E00C944212DC012B01FA019C91923059
:1000F00008F439C1EB018881823008F433C19430AF
:1001000069F4843009F02FC111969C91119789816F
:10011000981709F428C1AAEEB0E025C1843009F48B
:1001200021C18230A9F4923009F01DC19A01AD01BC
:1001300088E0EA010990AE01E90109929E0181502F
:10014000C1F7E201898111969C918923818308C1BD
:10015000923009F407C112962D903C901397EB0151
:100160008A819B811496AD90BD90CD90DC901797BD
:10017000EC80FD800E811F819101281B390BB90194
:1001800037FF04C066277727621B730B6032710547
:100190000CF061C0121613066CF537014801062EEB
:1001A00004C096948794779467940A94D2F721E0D8
:1001B00030E040E050E004C0220F331F441F551FC1
:1001C0006A95D2F721503040404050402E213F21C7
:1001D00040235123211531054105510521F021E02E
:1001E00030E040E050E079018A01E628F72808294C
:1001F00019293CC0232BD1F1260E371E35014601AB
:10020000062E04C096948794779467940A94D2F744
:1002100021E030E040E050E004C0220F331F441FD3
:10022000551F6A95D2F721503040404050402A2156
:100230003B214C215D21211531054105510521F05E
:1002400021E030E040E050E059016A01A628B728DB
:10025000C828D9280BC0821593052CF01C01AA24AC
:10026000BB24650103C0EE24FF24870111969C91F5
:10027000D20111968C91981709F445C0992339F051
:10028000A80197012A193B094C095D0906C0A6017E
:1002900095012E193F09400B510B57FD08C01182E3
:1002A0003382228224833583468357831DC081E0B5
:1002B00081833382228288279927DC01821B930B5A
:1002C000A40BB50B84839583A683B7830DC0220F3F
:1002D000331F441F551F24833583468357838281F0
:1002E000938101979383828324813581468157814D
:1002F000DA01C9010197A109B1098F5F9F4FAF4F83
:10030000BF4328F30BC0918333822282EA0CFB1C8B
:100310000C1D1D1DE482F5820683178383E0808314
:10032000248135814681578157FF1AC0C901AA2708
:1003300097FDA095BA2F81709070A070B0705695FF
:10034000479537952795822B932BA42BB52B848328
:100350009583A683B7838281938101969383828359
:10036000DF0101C0D201CD01CDB7DEB7E2E10C94CF
:100370005E12A0E2B0E0EFEBF1E00C944E12698364
:100380007A838B839C832D833E834F835887E9E058
:10039000EE2EF12CEC0EFD1ECE010196B7010E944F
:1003A000CA048E010F5E1F4FCE010596B8010E9450
:1003B000CA048A8991E089278A8BC701B801AE01F6
:1003C000475E5F4F0E946D000E94F503A096E6E035
:1003D0000C946A12A0E2B0E0E0EFF1E00C944E124F
:1003E00069837A838B839C832D833E834F835887D5
:1003F000F9E0EF2EF12CEC0EFD1ECE010196B701B7
:100400000E94CA048E010F5E1F4FCE010596B801EF
:100410000E94CA04C701B801AE01475E5F4F0E9447
:100420006D000E94F503A096E6E00C946A12A0E22B
:10043000B0E0EDE1F2E00C94421269837A838B83A1
:100440009C832D833E834F835887CE010196BE0146
:10045000675F7F4F0E94CA04CE010596BE016F5EA2
:100460007F4F0E94CA049985923088F08989823032
:10047000C8F0943019F4823051F404C0843029F467
:10048000923081F48AEE90E0C6C0923049F420E0C8
:100490009A858A89981321E02A87CE010996BBC0E4
:1004A000823049F420E09A858A89981321E02A8BCA
:1004B000CE014196B0C02D843E844F8458886D880B
:1004C0007E888F88988CEE24FF248701AA24BB2481
:1004D000650140E050E060E070E0E0E0F0E0C10184
:1004E00081709070892BE9F0E60CF71C081D191D2E
:1004F0009A01AB012A0D3B1D4C1D5D1D80E090E073
:10050000A0E0B0E0E614F7040805190520F481E046
:1005100090E0A0E0B0E0BA01A901480F591F6A1F9E
:100520007B1FAA0CBB1CCC1CDD1C97FE08C081E005
:1005300090E0A0E0B0E0A82AB92ACA2ADB2A3196C6
:10054000E032F10549F0660C771C881C991C569422
:10055000479437942794C3CFFA85EA892B893C893D
:100560008B859C85280F391F2E5F3F4F17C0CA010E
:1005700081709070892B61F016950795F794E79438
:1005800080E090E0A0E0B0E8E82AF92A0A2B1B2BD3
:1005900076956795579547952F5F3F4F77FDE7CF46
:1005A0000CC0440F551F661F771F17FD4160EE0CEE
:1005B000FF1C001F111F21503040403090E05907B0
:1005C00090E0690790E4790760F32B8F3C8FDB01A3
:1005D000CA018F779070A070B07080349105A1052A
:1005E000B10561F447FD0AC0E114F10401051105EC
:1005F00029F0405C5F4F6F4F7F4F40781A8EFE1797
:1006000011F081E08A8F4D8F5E8F6F8F78A383E02A
:10061000898FCE0149960E94F503A096E2E10C94E1
:100620005E12A8E1B0E0E7E1F3E00C944E126983BA
:100630007A838B839C832D833E834F83588789E005
:10064000E82EF12CEC0EFD1ECE010196B7010E94A2
:10065000CA048E010F5E1F4FCE010596B8010E949D
:10066000CA048985823040F08989823028F0C70128
:10067000B8010E94420501C08FEF6896E6E00C9435
:100680006A12A8E1B0E0E7E4F3E00C944E1269834B
:100690007A838B839C832D833E834F83588789E0A5
:1006A000E82EF12CEC0EFD1ECE010196B7010E9442
:1006B000CA048E010F5E1F4FCE010596B8010E943D
:1006C000CA048985823040F08989823028F0C701C8
:1006D000B8010E94420501C08FEF6896E6E00C94D5
:1006E0006A12A8E1B0E0E7E7F3E00C944E126983E8
:1006F0007A838B839C832D833E834F83588789E045
:10070000E82EF12CEC0EFD1ECE010196B7010E94E1
:10071000CA048E010F5E1F4FCE010596B8010E94DC
:10072000CA048985823040F08989823028F0C70167
:10073000B8010E94420501C081E06896E6E00C9491
:100740006A12ACE0B0E0E7EAF3E00C94521269837D
:100750007A838B839C83CE010196BE016B5F7F4FB2
:100760000E94CA048D81823061F1823050F1843060
:1007700021F48E81882351F12EC02F81388537FDD9
:1007800020C06E812F3131051CF06623F9F023C0A3
:100790008EE190E0821B930B29853A854B855C8521
:1007A00004C056954795379527958A95D2F76623C5
:1007B000B1F050954095309521953F4F4F4F5F4F89
:1007C0000EC020E030E040E050E009C02FEF3FEFE6
:1007D0004FEF5FE704C020E030E040E050E8B901AF
:1007E000CA012C96E2E00C946E12DF92EF92FF9217
:1007F0000F931F93FC01E480F58006811781D1805F
:100800008081823048F480E090E0A0E1B0E0E82A06
:10081000F92A0A2B1B2BA5C0843009F49FC0823013
:1008200021F4EE24FF24870105C0E114F104010541
:10083000110519F4E0E0F0E096C0628173819FEF4A
:10084000623879070CF05BC022E83FEF261B370BBC
:100850002A3131052CF020E030E040E050E02AC0A1
:10086000B801A701022E04C0769567955795479564
:100870000A94D2F781E090E0A0E0B0E004C0880FD5
:10088000991FAA1FBB1F2A95D2F70197A109B10989
:100890008E219F21A023B1230097A105B10521F04E
:1008A00081E090E0A0E0B0E09A01AB01282B392B69
:1008B0004A2B5B2BDA01C9018F779070A070B07062
:1008C00080349105A105B10539F427FF09C0205CEA
:1008D0003F4F4F4F5F4F04C0215C3F4F4F4F5F4F23
:1008E000E0E0F0E02030A0E03A07A0E04A07A0E412
:1008F0005A0710F0E1E0F0E079018A0127C0603882
:10090000710564F5FB01E158FF4FD801C7018F77EE
:100910009070A070B07080349105A105B10539F4D4
:10092000E7FE0DC080E490E0A0E0B0E004C08FE3FB
:1009300090E0A0E0B0E0E80EF91E0A1F1B1F17FFB1
:1009400005C016950795F794E794319687E01695BC
:100950000795F794E7948A95D1F705C0EE24FF2414
:100960008701EFEFF0E06E2F679566276795902F70
:100970009F77D794DD24D7948E2F8695492F462BC9
:10098000582F5D29B701CA011F910F91FF90EF9079
:10099000DF900895FC01DB01408151812281622FAB
:1009A0006F7770E0221F2227221F9381892F880FE3
:1009B000822B282F30E0991F9927991F11969C931D
:1009C000119721153105A9F54115510561057105ED
:1009D00011F482E037C082E89FEF13969C938E93C8
:1009E00012979A01AB0167E0220F331F441F551F76
:1009F0006A95D1F783E08C930DC0220F331F441FFB
:100A0000551F12968D919C911397019713969C9365
:100A10008E931297203080E0380780E0480780E40A
:100A2000580758F314962D933D934D935C93179765
:100A300008952F3F310579F4411551056105710580
:100A400019F484E08C93089564FF03C081E08C93D3
:100A500012C01C9210C02F57304013963C932E9317
:100A6000129783E08C9387E0440F551F661F771F12
:100A70008A95D1F7706414964D935D936D937C9332
:100A8000179708951F93DC01FB019C91923008F4A5
:100A900047C08081823008F443C0943051F41196ED
:100AA0001C91843099F58181682F70E0611B710978
:100AB0003FC0843021F0923031F48230B9F181812D
:100AC000882389F12DC011961C9111978230F1F085
:100AD00081811817D9F412962D913C911397828138
:100AE00093818217930794F028173907BCF0149666
:100AF0008D919D910D90BC91A02D248135814681D1
:100B00005781281739074A075B0718F4112341F06A
:100B10000AC082179307A407B50740F4112319F000
:100B200061E070E005C06FEF7FEF02C060E070E051
:100B3000CB011F910895DF93CF93CDB7DEB781E04E
:100B400065E041E00E94FD0681E066E040E00E9431
:100B5000FD0681E067E041E00E94FD0681E064E07F
:100B600041E00E94FD06ADE2B0E0EDE2F0E0808100
:100B700080618C93ADE2B0E0EDE2F0E080818062D4
:100B80008C93ADE2B0E0EDE2F0E08081877F8C9362
:100B9000ADE2B0E0EDE2F0E0808181608C93ADE207
:100BA000B0E0EDE2F0E080818D7F8C93AEE2B0E0CA
:100BB000EEE2F0E080818E7F8C93ADE2B0E0EDE27A
:100BC000F0E0808180648C93CF91DF9108950F9342
:100BD0001F93DF93CF9300D0CDB7DEB78A831982FE
:100BE0000FE210E08A810E949206F8018083EEE213
:100BF000F0E080818823DCF781E0898389810F9090
:100C00000F90CF91DF911F910F910895DF93CF93B4
:100C100000D000D0CDB7DEB79B838A8319828A814A
:100C20009B81009719F489818C8313C0EA81FB8131
:100C300080810E94E7058A819B8101969B838A833C
:100C4000EA81FB818081882389F781E0898389811A
:100C50008C838C810F900F900F900F90CF91DF912C
:100C60000895DF93CF9300D00F92CDB7DEB79B836B
:100C70008A831982EEE2F0E080818823DCF7EFE2DC
:100C8000F0E08081EA81FB818083EFE2F0E0808107
:100C90000E949206EA81FB81808381E089838981B9
:100CA0000F900F900F90CF91DF910895DF93CF9326
:100CB000CDB7DEB727970FB6F894DEBF0FBECDBF16
:100CC0009D838C831B828C819D81009719F48B817D
:100CD0008E831EC08C819D819A83898389819A81AC
:100CE0000E943106E981FA8180818F838F81882378
:100CF00011F081E08F838F8129813A812F5F3F4FEF
:100D00003A832983882351F781E08B838B818E83FB
:100D10008E8127960FB6F894DEBF0FBECDBFCF9160
:100D2000DF910895DF93CF930F92CDB7DEB789831C
:100D3000898182958F70282F8981882F90E08295F4
:100D40009295907F9827807F9827822B898389812D
:100D5000882F90E08C7C90709595879595958795D8
:100D6000282F8981882F90E083739070880F991FB6
:100D7000880F991F822B89838981882F90E08A7A36
:100D8000907095958795282F8981882F90E085759B
:100D90009070880F991F822B898389810F90CF9142
:100DA000DF910895DF93CF930F92CDB7DEB719820D
:100DB000EAE3F0E080EF8083EBE3F0E083EC808314
:100DC000E7E3F0E080EF8083E8E3F0E083EC80830A
:100DD000E4E3F0E080EF8083E5E3F0E083EC808300
:100DE000E1E3F0E080EF8083E2E3F0E083EC8083F6
:100DF00089810F90CF91DF910895DF93CF93CDB785
:100E0000DEB727970FB6F894DEBF0FBECDBF8A833B
:100E10006B834C8319828A81843008F0DEC08B8119
:100E2000883008F0DAC08C81823008F0D6C08A8120
:100E3000282F30E03F832E838E819F818130910562
:100E400009F443C02E813F81223031052CF48E817C
:100E50009F81009771F0BCC02E813F812230310507
:100E600009F45FC08E819F818330910509F485C0AC
:100E7000AFC08C818130A1F4AAE3B0E0EAE3F0E0F6
:100E80008081482F8B81282F30E081E090E0022E76
:100E900002C0880F991F0A94E2F7842B8C9398C0A4
:100EA000AAE3B0E0EAE3F0E08081482F8B81282FAD
:100EB00030E081E090E0022E02C0880F991F0A9472
:100EC000E2F7809584238C9383C08C818130A1F4D8
:100ED000A7E3B0E0E7E3F0E08081482F8B81282F83
:100EE00030E081E090E0022E02C0880F991F0A9442
:100EF000E2F7842B8C936CC0A7E3B0E0E7E3F0E06B
:100F00008081482F8B81282F30E081E090E0022EF5
:100F100002C0880F991F0A94E2F7809584238C936E
:100F200057C08C818130A1F4A4E3B0E0E4E3F0E0A9
:100F30008081482F8B81282F30E081E090E0022EC5
:100F400002C0880F991F0A94E2F7842B8C9340C04B
:100F5000A4E3B0E0E4E3F0E08081482F8B81282F08
:100F600030E081E090E0022E02C0880F991F0A94C1
:100F7000E2F7809584238C932BC08C818130A1F47F
:100F8000A1E3B0E0E1E3F0E08081482F8B81282FDE
:100F900030E081E090E0022E02C0880F991F0A9491
:100FA000E2F7842B8C9314C0A1E3B0E0E1E3F0E01E
:100FB0008081482F8B81282F30E081E090E0022E45
:100FC00002C0880F991F0A94E2F7809584238C93BE
:100FD00081E0898399819D8302C029812D838D8140
:100FE00027960FB6F894DEBF0FBECDBFCF91DF912D
:100FF0000895DF93CF93CDB7DEB727970FB6F89458
:10100000DEBF0FBECDBF8A836B834C8319828A817A
:10101000843008F0DEC08B81883008F0DAC08C8123
:10102000823008F0D6C08A81282F30E03F832E839B
:101030008E819F818130910509F443C02E813F81CB
:10104000223031052CF48E819F81009771F0BCC055
:101050002E813F812230310509F45FC08E819F814E
:101060008330910509F485C0AFC08C818823A1F03D
:10107000ABE3B0E0EBE3F0E08081482F8B81282FD9
:1010800030E081E090E0022E02C0880F991F0A94A0
:10109000E2F7842B8C9398C0ABE3B0E0EBE3F0E095
:1010A0008081482F8B81282F30E081E090E0022E54
:1010B00002C0880F991F0A94E2F7809584238C93CD
:1010C00083C08C818823A1F0A8E3B0E0E8E3F0E0DE
:1010D0008081482F8B81282F30E081E090E0022E24
:1010E00002C0880F991F0A94E2F7842B8C936CC07E
:1010F000A8E3B0E0E8E3F0E08081482F8B81282F5F
:1011000030E081E090E0022E02C0880F991F0A941F
:10111000E2F7809584238C9357C08C818823A1F0BB
:10112000A5E3B0E0E5E3F0E08081482F8B81282F34
:1011300030E081E090E0022E02C0880F991F0A94EF
:10114000E2F7842B8C9340C0A5E3B0E0E5E3F0E048
:101150008081482F8B81282F30E081E090E0022EA3
:1011600002C0880F991F0A94E2F7809584238C931C
:101170002BC08C818823A1F0A2E3B0E0E2E3F0E091
:101180008081482F8B81282F30E081E090E0022E73
:1011900002C0880F991F0A94E2F7842B8C9314C025
:1011A000A2E3B0E0E2E3F0E08081482F8B81282FBA
:1011B00030E081E090E0022E02C0880F991F0A946F
:1011C000E2F7809584238C9381E0898399819D83C4
:1011D00002C029812D838D8127960FB6F894DEBF3A
:1011E0000FBECDBFCF91DF910895DF93CF93CDB7E1
:1011F000DEB728970FB6F894DEBF0FBECDBF8A8347
:101200006B835D834C8319828C819D81009729F4C7
:1012100083E08983298128877FC08A81843008F010
:1012200079C08B81883008F075C08A81482F50E0E2
:101230005F834E838E819F818130910559F12E818C
:101240003F812230310534F44E815F8141155105D3
:1012500069F05BC08E819F818230910579F12E818A
:101260003F812330310509F43DC04FC0E9E3F0E090
:101270008081282F30E08B81882F90E0A90102C067
:10128000559547958A95E2F7CA018170EC81FD81F9
:1012900080833BC0E6E3F0E08081282F30E08B8143
:1012A000882F90E0A90102C0559547958A95E2F7ED
:1012B000CA018170EC81FD81808327C0E3E3F0E007
:1012C0008081282F30E08B81882F90E0A90102C017
:1012D000559547958A95E2F7CA018170EC81FD81A9
:1012E000808313C0E0E3F0E08081282F30E08B8121
:1012F000882F90E0A90102C0559547958A95E2F79D
:10130000CA018170EC81FD81808381E089835981EC
:10131000588702C089818887888528960FB6F894F7
:10132000DEBF0FBECDBFCF91DF910895DF93CF9386
:1013300000D000D000D0CDB7DEB78A836B8319828E
:101340008A81843008F077C08B81883008F073C0C0
:101350008A81282F30E03E832D838D819E818130CC
:10136000910549F12D813E81223031052CF48D818A
:101370009E81009761F05AC02D813E812230310557
:1013800071F18D819E8183309105E9F14FC0ABE30E
:10139000B0E0EBE3F0E08081482F8B81282F30E034
:1013A00081E090E0022E02C0880F991F0A94E2F7B4
:1013B00084278C933BC0A8E3B0E0E8E3F0E08081B1
:1013C000482F8B81282F30E081E090E0022E02C070
:1013D000880F991F0A94E2F784278C9327C0A5E30E
:1013E000B0E0E5E3F0E08081482F8B81282F30E0EA
:1013F00081E090E0022E02C0880F991F0A94E2F764
:1014000084278C9313C0A2E3B0E0E2E3F0E0808194
:10141000482F8B81282F30E081E090E0022E02C01F
:10142000880F991F0A94E2F784278C9381E08983BF
:1014300099819C8302C029812C838C8126960FB6CA
:10144000F894DEBF0FBECDBFCF91DF910895DF933B
:10145000CF9300D000D000D0CDB7DEB78A836B83A6
:1014600019828A81843008F057C08B81823008F05D
:1014700053C08A81282F30E03E832D838D819E8149
:101480008130910509F12D813E81223031052CF406
:101490008D819E81009761F03AC02D813E8122307E
:1014A0003105F1F08D819E818330910529F12FC0A6
:1014B0008B81813029F4EAE3F0E08FEF808327C04D
:1014C000EAE3F0E0108223C08B81813029F4E7E366
:1014D000F0E08FEF80831BC0E7E3F0E0108217C0DD
:1014E0008B81813029F4E4E3F0E08FEF80830FC03B
:1014F000E4E3F0E010820BC08B81813029F4E1E35A
:10150000F0E08FEF808303C0E1E3F0E0108281E040
:10151000898399819C8302C029812C838C812696A2
:101520000FB6F894DEBF0FBECDBFCF91DF91089507
:10153000DF93CF9300D000D000D0CDB7DEB78A8341
:101540006B8319828A81843008F057C08B81823086
:1015500008F053C08A81282F30E03E832D838D818F
:101560009E818130910509F12D813E812230310526
:101570002CF48D819E81009761F03AC02D813E81CF
:1015800022303105F1F08D819E818330910529F162
:101590002FC08B81882329F0EBE3F0E08FEF80836D
:1015A00027C0EBE3F0E0108223C08B81882329F071
:1015B000E8E3F0E08FEF80831BC0E8E3F0E0108207
:1015C00017C08B81882329F0E5E3F0E08FEF80835B
:1015D0000FC0E5E3F0E010820BC08B81882329F077
:1015E000E2E3F0E08FEF808303C0E2E3F0E01082FB
:1015F00081E0898399819C8302C029812C838C811D
:1016000026960FB6F894DEBF0FBECDBFCF91DF9107
:101610000895DF93CF930F92CDB7DEB7198282E0A2
:1016200060E041E00E94FD0682E061E041E00E944E
:10163000FD0682E062E041E00E94FD0682E063E098
:1016400041E00E94FD0682E060E041E00E94F9076F
:1016500082E061E041E00E94F90782E062E041E05F
:101660000E94F90782E063E041E00E94F90782E00E
:1016700064E040E00E94FD0682E065E040E00E94F8
:10168000FD0682E066E040E00E94FD0682E067E041
:1016900040E00E94FD0682E064E041E00E94F9071C
:1016A00082E065E041E00E94F90782E066E041E007
:1016B0000E94F90782E067E041E00E94F90781E0BB
:1016C000898389810F90CF91DF910895DF93CF9324
:1016D000CDB7DEB72A970FB6F894DEBF0FBECDBFE9
:1016E0008A87198282E08A8382E08B8382E08C83FE
:1016F00082E08D831E8281E08F8382E0888783E091
:101700008987198236C099818A859817C1F48981A1
:10171000282F30E0CE010296FC01E20FF31F40813A
:101720008981282F30E0CE010696FC01E20FF31FDD
:101730009081842F692F40E00E94F90717C08981AA
:10174000282F30E0CE010296FC01E20FF31F40810A
:101750008981282F30E0CE010696FC01E20FF31FAD
:101760009081842F692F41E00E94F90789818F5F62
:1017700089838981843038F22A960FB6F894DEBFC7
:101780000FBECDBFCF91DF910895DF93CF93CDB73B
:10179000DEB72F970FB6F894DEBF0FBECDBF9E8782
:1017A0008D871B828D859E85009719F48B818F878D
:1017B0007FC081E08C831A82198282E08D8382E06F
:1017C0008E8382E08F8382E0888784E0898785E04A
:1017D0008A8786E08B8787E08C871A8263C08A813C
:1017E0000E94660B198257C08981282F30E0CE01F4
:1017F0000596FC01E20FF31F40818981282F30E01C
:10180000CE010996FC01E20FF31F90819E012C5F2F
:101810003F4F842F692FA9010E94F5088C818823EE
:10182000B9F58A81882F90E09C01220F331F220F87
:10183000331F8981882F90E0820F931FFC01EE50A7
:10184000FF4F8081ED85FE8580831AC08981282F16
:1018500030E0CE010596FC01E20FF31F4081898143
:10186000282F30E0CE010996FC01E20FF31F908192
:101870009E012C5F3F4F842F692FA9010E94F5081C
:101880008C81882319F381E08B838B818F8710C033
:1018900089818F5F89838981843008F4A5CF8A810B
:1018A0008F5F8A838A81843008F499CF8B818F87F8
:1018B0008F852F960FB6F894DEBF0FBECDBFCF91A8
:1018C000DF910895DF93CF93CDB7DEB76D970FB655
:1018D000F894DEBF0FBECDBF1D8E81E062E041E017
:1018E0000E94FD0681E061E041E00E94FD0681E08A
:1018F00063E041E00E94FD0683E067E041E00E9472
:10190000FD0683E066E041E00E94FD0683E065E0BD
:1019100041E00E94FD0683E064E041E00E94FD0694
:1019200080E090E0ACE0B2E4898F9A8FAB8FBC8FFF
:10193000698D7A8D8B8D9C8D20E030E04AEF54E4E8
:101940000E941702DC01CB018D8B9E8BAF8BB88F71
:101950006D897E898F89988D20E030E040E85FE3D3
:101960000E94710388232CF481E090E09C8B8B8B88
:101970003FC06D897E898F89988D20E03FEF4FE7CA
:1019800057E40E94110318164CF5698D7A8D8B8DE2
:101990009C8D20E030E040E251E40E941702DC011F
:1019A000CB01BC01CD010E944100DC01CB019C8B2D
:1019B0008B8B0FC088EC90E09A8B898B89899A89F0
:1019C0000197F1F79A8B898B8B899C8901979C8B66
:1019D0008B8B8B899C89009769F714C06D897E89F0
:1019E0008F89988D0E944100DC01CB019C8B8B8BF1
:1019F0008B899C89988B8F878F8598890197F1F7C0
:101A0000988B8F8783E063E041E00E94FD0683E0CE
:101A100062E041E00E94FD0683E061E041E00E9457
:101A2000FD0683E060E041E00E94FD0688E30E943D
:101A3000A20E80E090E0A0E8BFE38B879C87AD8793
:101A4000BE876B857C858D859E8520E030E04AEFE2
:101A500054E40E941702DC01CB018F839887A98789
:101A6000BA876F81788589859A8520E030E040E8E3
:101A70005FE30E94710388232CF481E090E09E8351
:101A80008D833FC06F81788589859A8520E03FEFFF
:101A90004FE757E40E94110318164CF56B857C85BF
:101AA0008D859E8520E030E040E251E40E941702DF
:101AB000DC01CB01BC01CD010E944100DC01CB0166
:101AC0009E838D830FC088EC90E09C838B838B81F9
:101AD0009C810197F1F79C838B838D819E81019777
:101AE0009E838D838D819E81009769F714C06F81DD
:101AF000788589859A850E944100DC01CB019E830F
:101B00008D838D819E819A83898389819A810197B2
:101B1000F1F79A8389838CE00E94A20E81E00E94F3
:101B2000A20E80E00E94A20E86E00E94A20E81E03A
:101B30008D8F8D8D6D960FB6F894DEBF0FBECDBF25
:101B4000CF91DF910895DF93CF93CDB7DEB7609744
:101B50000FB6F894DEBF0FBECDBF888B1F86888975
:101B6000982F917083E060E0492F0E94F9078889DF
:101B70008695982F917083E061E0492F0E94F907C4
:101B8000888986958695982F917083E062E0492F29
:101B90000E94F9078889869586958695982F917079
:101BA00083E063E0492F0E94F907888982958F704E
:101BB000982F917083E064E0492F0E94F90788898B
:101BC000829586958770982F917083E065E0492F04
:101BD0000E94F90788898295869586958370982F4B
:101BE000917083E066E0492F0E94F9078889982F59
:101BF000991F9927991F83E067E0492F0E94F907F1
:101C000081E063E041E00E94F90780E090E0A0E01D
:101C1000B0E48B879C87AD87BE876B857C858D857F
:101C20009E8520E030E04AEF54E40E941702DC0178
:101C3000CB018F839887A987BA876F81788589853B
:101C40009A8520E030E040E85FE30E94710388233A
:101C50002CF481E090E09E838D833FC06F81788576
:101C600089859A8520E03FEF4FE757E40E941103F2
:101C700018164CF56B857C858D859E8520E030E0BF
:101C800040E251E40E941702DC01CB01BC01CD010E
:101C90000E944100DC01CB019E838D830FC088EC44
:101CA00090E09C838B838B819C810197F1F79C83CF
:101CB0008B838D819E8101979E838D838D819E81F3
:101CC000009769F714C06F81788589859A850E948D
:101CD0004100DC01CB019E838D838D819E819A839F
:101CE000898389819A810197F1F79A83898381E0B9
:101CF00063E040E00E94F90781E08F878F8560965E
:101D00000FB6F894DEBF0FBECDBFCF91DF9108951F
:101D1000DF93CF9300D0CDB7DEB78A83198281E0FD
:101D200062E041E00E94F90781E061E040E00E944A
:101D3000F9078A810E94A30D89810F900F90CF919E
:101D4000DF910895DF93CF9300D0CDB7DEB78A83BC
:101D5000198281E062E040E00E94F90781E061E0E1
:101D600040E00E94F9078A810E94A30D81E08983E7
:101D700089810F900F90CF91DF910895DF93CF93DA
:101D800000D000D00F92CDB7DEB79C838B831A8230
:101D90008B819C810097F9F019820FC08981282FCF
:101DA00030E08B819C81FC01E20FF31F90818981DF
:101DB0008F5F8983892F0E94880E8981282F30E0C8
:101DC0008B819C81FC01E20FF31F8081882331F716
:101DD0008A818D8304C081E08A838A818D838D818D
:101DE0000F900F900F900F900F90CF91DF9108956B
:101DF000DF93CF93CDB7DEB7A0970FB6F894DEBFD1
:101E00000FBECDBF6B8F7C8F8D8F9E8F4F8F1E82AD
:101E10001D821C821B821A828B8D9C8DAD8DBE8D86
:101E2000BB2394F48DE20E94880E8B8D9C8DAD8D2A
:101E3000BE8DB095A095909581959F4FAF4FBF4FA8
:101E40008B8F9C8FAD8FBE8F8B8D9C8DAD8DBE8DFE
:101E50000097A105B10509F04BC08D81282F30E016
:101E6000CE010796FC01E20FF31F80E380838D8192
:101E70008F5F8D838D81282F30E0CE010796FC0186
:101E8000E20FF31F10828E8188A37FC08F8D282FD1
:101E900030E040E050E08B8D9C8DAD8DBE8DBC015F
:101EA000CD010E940512DC01CB018C838D81282F8E
:101EB00030E08C81482F405DCE010796FC01E20F97
:101EC000F31F40838D818F5F8D838F8D282F30E0AE
:101ED00040E050E08B8D9C8DAD8DBE8DBC01CD0161
:101EE0000E940512DA01C9018B8F9C8FAD8FBE8FC6
:101EF0008B8D9C8DAD8DBE8D0097A105B10531F602
:101F00008D81282F30E0CE010796FC01E20FF31FF0
:101F100010828D8181508A832CC08B81282F30E0E4
:101F2000CE010796FC01E20FF31F808189838B812C
:101F3000482F50E08A81282F30E0CE010796FC011F
:101F4000E20FF31F2081CE010796FC01E40FF51F7D
:101F500020838A81282F30E0CE010796FC01E20F12
:101F6000F31F898180838B818F5F8B838A8181506E
:101F70008A839B818A81981780F2CE0107960E94FE
:101F8000BE0E81E08E838E8188A388A1A0960FB6B5
:101F9000F894DEBF0FBECDBFCF91DF910895DF93E0
:101FA000CF93CDB7DEB727970FB6F894DEBF0FBE3D
:101FB000CDBF8B836C831A828B81813118F48C8125
:101FC000833018F02A812F8323C019828C81282F17
:101FD00030E03E832D838D819E818130910531F0EB
:101FE0002D813E812230310521F007C08B8189830C
:101FF00005C08B81805C898301C01A8289818068D9
:10200000898389810E94A20E81E08A833A813F837D
:102010008F8127960FB6F894DEBF0FBECDBFCF914C
:10202000DF910895DF93CF93CDB7DEB727970FB633
:10203000F894DEBF0FBECDBF9D838C836E831B8261
:102040008C819D81009719F08E81893018F08B81E9
:102050008F832AC08E81882F90E0880F991F880F68
:10206000991F880F991F8A838A8180648A838A8155
:102070000E94A20E19820EC08981282F30E08C8127
:102080009D81FC01E20FF31F80810E94880E8981EF
:102090008F5F89838981883078F382E00E94A20E65
:1020A00081E08B838B818F838F8127960FB6F89485
:1020B000DEBF0FBECDBFCF91DF910895DF93CF93E9
:1020C00000D000D0CDB7DEB78A836B834C831982F2
:1020D0008C816B810E94CF0F8A810E94880E81E0E3
:1020E000898389810F900F900F900F90CF91DF918E
:1020F0000895DF93CF9300D000D0CDB7DEB70E9414
:102100009B050E94090B0E94620C81E08A83198260
:1021100018C081E00E94A20E80E690E00E94BE0EF0
:1021200080E062E00E94CF0F80E790E00E94BE0E48
:102130000E94DE1189838981813318F08981863379
:1021400018F08A81882329F78981282F30E03C8381
:102150002B838B819C818333910509F4DFC02B8114
:102160003C812433310564F48B819C81813391055A
:10217000A1F02B813C812233310509F45EC01BC1E3
:102180008B819C818433910509F4EDC02B813C81C6
:102190002533310509F40CC10EC181E00E94A20E65
:1021A0008CE790E00E94BE0E80E062E00E94CF0FBC
:1021B0008AE890E00E94BE0E0E94DE11898339C039
:1021C0008981813379F581E00E94A20E83E990E054
:1021D0000E94BE0E80E062E00E94CF0F83EA90E092
:1021E0000E94BE0E0E94DE11898317C0898181334F
:1021F00029F480E10E94E7051A820FC089818233A9
:1022000029F484E10E94E7051A8207C0898183339B
:1022100021F488E10E94E7051A828A81882331F738
:102220001A8207C08981803321F48CE00E94E7057F
:102230001A828A81882321F6BEC081E00E94A20E04
:102240008DEA90E00E94BE0E80E062E00E94CF0F17
:102250008AE890E00E94BE0E0E94DE11898339C098
:102260008981813379F581E00E94A20E83E990E0B3
:102270000E94BE0E80E062E00E94CF0F83EA90E0F1
:102280000E94BE0E0E94DE11898317C089818133AE
:1022900029F480E30E94E7051A820FC08981823306
:1022A00029F484E30E94E7051A8207C089818333F9
:1022B00021F488E30E94E7051A828A81882331F796
:1022C0001A8207C08981803321F48CE20E94E705DD
:1022D0001A828A81882321F66EC081E00E94A20EB4
:1022E0008BEB90E00E94BE0E80E062E00E94CF0F78
:1022F0008AE890E00E94BE0E0E94DE1189838981E7
:10230000813329F480E50E94E7051A8207C089819C
:10231000803321F480E40E94E7051A828A818823B1
:10232000E1F649C081E00E94A20E89EC90E00E9493
:10233000BE0E80E062E00E94CF0F8AE890E00E942B
:10234000BE0E0E94DE1189838981813329F480E7E2
:102350000E94E7051A8207C08981803321F480E654
:102360000E94E7051A828A818823E1F624C081E071
:102370000E94A20E8AED90E00E94BE0E80E062E014
:102380000E94CF0F8AE890E00E94BE0E0E94DE11EC
:1023900089838981813329F480E90E94E7051A82C3
:1023A00007C08981803321F480E80E94E7051A8202
:1023B0008A818823E1F681E08A83C3CEDF93CF93BD
:1023C00000D0CDB7DEB719821A82CE0102960E94E4
:1023D000C50B89838981882389F48A81882371F0D8
:1023E0008A810E94880E8A810F900F90CF91DF9191
:1023F0000895CE0102960E94C50B898389818823A6
:1024000021F78A818823A9F7E0CF97FB092E0526BB
:102410000ED057FD04D014D00AD0001C38F45095CB
:102420004095309521953F4F4F4F5F4F0895F6F7F8
:1024300090958095709561957F4F8F4F9F4F089530
:10244000A1E21A2EAA1BBB1BFD010DC0AA1FBB1FB8
:10245000EE1FFF1FA217B307E407F50720F0A21B2A
:10246000B30BE40BF50B661F771F881F991F1A9497
:1024700069F760957095809590959B01AC01BD01C1
:10248000CF0108952F923F924F925F926F927F9269
:102490008F929F92AF92BF92CF92DF92EF92FF9274
:1024A0000F931F93CF93DF93CDB7DEB7CA1BDB0B20
:1024B0000FB6F894DEBF0FBECDBF09942A883988C5
:1024C00048885F846E847D848C849B84AA84B984CC
:1024D000C884DF80EE80FD800C811B81AA81B981D8
:1024E000CE0FD11D0FB6F894DEBF0FBECDBFED01EC
:0624F0000895F894FFCFEF
:1024F6004D313A312C204D323A322C20523A3300AB
:10250600593A342C20473A35203E20004D6F746FDF
:102516007220312C204F4E3A31004F46463A302039
:102526003E20004C4F573A312C204D656469756D3D
:102536003A3200486967683A33203E20004D6F748E
:102546006F7220322C204F4E3A3100524544204CB7
:1025560045442C204F4E3A310059454C4C4F57209C
:102566004C45442C204F4E3A3100475245454E20AB
:102576004C45442C204F4E3A31000000000000002C
:1025860000003738392F343536583132332D4B3039
:022596003D2BDB
:00000001FF
